:020000040001F9
:10400000083A0020E1410100F3410100F5410100BF
:1040100000000000000000000000000000000000A0
:10402000000000000000000000000000F741010057
:104030000000000000000000F9410100FB41010008
:10404000FD410100FD410100FD410100FD41010074
:10405000FD41010000000000A5750100FD410100C7
:10406000FD410100FD410100FD410100FD41010054
:10407000FD410100FD410100FD410100FD41010044
:10408000FD4101006B6A0100FD410100FD4101009D
:104090008D6A0100FD410100FF710100FD41010039
:1040A000FD410100FD410100000000000000000092
:1040B0000000000000000000000000000000000000
:1040C00000F002F800F040F80CA030C808382418BE
:1040D0002D18A246671EAB4654465D46AC4201D140
:1040E00000F032F87E460F3E0FCCB6460126334232
:1040F00000D0FB1AA246AB4633431847643B00008E
:10410000843B0000103A02D378C878C1FAD852072D
:1041100001D330C830C101D504680C60704700007D
:104120000023002400250026103A01D378C1FBD8D3
:10413000520700D330C100D50B6070471FB5C04691
:10414000C0461FBD10B510BD03F041FD1146FFF77D
:10415000F5FF00F003FC03F059FD03B4FFF7F2FF95
:1041600003BC03F05DFD0000401E00BF00BF00BFA8
:1041700000BF00BF00BF00BF00BF00BF00BF00BF47
:1041800000BFF1D170470000401E00BF00BF00BF5C
:1041900000BF00BF00BF00BF00BF00BF00BF00BF27
:1041A00000BFF1D17047000070B505460C461646B9
:1041B00002E00FCC0FC5103E102EFAD2082E02D30B
:1041C00003CC03C5083E042E07D301CC01C5361F1E
:1041D00003E021782970641C6D1C761EF9D270BD35
:1041E0000A48026803210A430260094880470948D7
:1041F0000047FEE7FEE7FEE7FEE7FEE7FEE700001A
:1042000005480649064A074B704700002405004050
:10421000CD420100C1400100082A0020083A0020D8
:1042200008320020083200203248334908607047C5
:104230003248008CC0B2012812D13048808C00076F
:10424000000F00280CD12D48806AF021084040283A
:1042500006D12A48C06A0840002801D101207047D1
:104260000020FCE72548008CC0B201282CD123484F
:10427000808C0007000F002826D12048806AF0219A
:104280000840002806D11D48C06A0840002801D116
:10429000012070471948806AF0210840102806D193
:1042A0001648C06A0840002801D10120F1E71348F0
:1042B000806AF0210840302806D11048C06A0840C2
:1042C000002801D10120E4E70020E2E710B5FFF764
:1042D000C9FF002805D00A480A494860C8130A499E
:1042E0008861FFF7A5FF002802D0012007498860F8
:1042F00010BD00000024F40000200020C00F00F0DA
:10430000DFFF07C000050040006C004000060040D1
:1043100004460D4616460BE0FD480078305CFD492A
:10432000FB4A12788854FA480078401CF849087013
:10433000F74800783228EFD110E0F74804600560B4
:10434000122000F030FBFF20F53003F021FB12209B
:1043500000F02EFBFF20F53003F01AFBEDE70446DA
:104360000D462A462146ED48FFF7D2FF10B5122030
:1043700000F010FB132000F00DFB122000F00AFBF0
:104380001C2000F007FB1D2000F004FB1E2000F0A5
:1043900001FB172000F0FEFA162000F0FBFA10BD1A
:1043A00038B500BF0020DE4B0B220621009002F042
:1043B00071FB044600BF2546002D06D000BFD9A2E0
:1043C000FF2148312846FFF7A3FF00BF00BF38BDDB
:1043D0003EB500BF6846007801090901491C0091FB
:1043E00068460078F02188431030009000BF0C220E
:1043F000CFA168467CDF044600BF2546002D06D0CD
:1044000000BFC8A2FF2170312846FFF781FF00BF1F
:10441000002001900290FF2191316846818049007F
:10442000C18000210181FF219131418101A87ADF02
:10443000044600BF2546002D06D000BFB9A2FF21CB
:104440007E312846FFF764FF00BF3EBD30B591B016
:1044500005210291BA4800680190382103A803F0B1
:1044600004FB02216846017301218173018202A9C4
:1044700005910121818401A90A91002103A801F07D
:10448000A5FD044600BF2546002D06D000BFA5A20D
:10449000FF219B312846FFF73BFF00BF11B030BD25
:1044A0000246002070470246002070477CB5A548B0
:1044B0000090A54801906946A44800F020FC0446FD
:1044C00000BF2546002D06D000BF96A2FF21F13186
:1044D0002846FFF71DFF00BF7CBD1E209C490880B9
:1044E0000846807840084000401C88700846807864
:1044F0000221884396498870084680781C218843A9
:104500000C30934988700846807820218843904970
:1045100088700720C87010200871704770B5054674
:104520002878002810D13B218A48008876DF04468D
:1045300000BF2646002E06D000BF7AA28521890042
:104540003046FFF7E5FE00BF70BD044600BF75A210
:1045500081492046FFF7DCFE30B587B01C21684654
:1045600003F083FA002000900520400401908010A1
:1045700002900321684601730021C18101747748CC
:10458000059077480690684602F063FC044600BF39
:104590002546002D06D000BF62A26F49173128467C
:1045A000FFF7B6FE00BF07B030BD70B50022032193
:1045B000C9036C48006802F02FFB044600BF254683
:1045C000002D06D000BF57A2634927312846FFF7C8
:1045D0009FFE00BF0022032109046348006802F027
:1045E0001BFB044600BF2546002D06D000BF4DA290
:1045F00059492A312846FFF78BFE00BF00220921C6
:10460000C9035A48006802F007FB044600BF25466C
:10461000002D06D000BF43A2932189002846FFF752
:1046200077FE00BF70BD30B585B01421684603F039
:104630001CFA002168460170002001906846017252
:1046400040210182B421418273DF044600BF254628
:10465000002D06D000BF33A23F4942312846FFF764
:1046600057FE00BF122000F09EF905B030BDF8B52E
:104670000546288814284AD006DC10280BD01128BB
:1046800015D0132874D11CE0172874D0192871D0C4
:104690005228F7D128E0132000F085F9122000F00D
:1046A00087F9A8882B490880FFF77FFFB8E013201F
:1046B00000F07EF90020C04326490880FFF7B3FFD1
:1046C000AEE0234A0021234800887FDF044600BF74
:1046D0002746002F06D000BF12A21F497631384668
:1046E000FFF716FE00BF9BE0002211461948008824
:1046F000A9DF044600BF2746002F06D000BF09A24D
:1047000015497B313846FFF703FE00BF88E038E0EB
:1047100028200020F820002024200020EFBEADDE5D
:104720005C2100202E2E5C6D61696E2E63000000FE
:1047300051554F54455F53455256455200000000B5
:104740004C7C0100A1440100A7440100D4200020BA
:10475000042000200A2000201F0200001D45010047
:104760004B4501000C2000201020002014200020C8
:1047700055E000E02FE03222A91D904803F016F921
:104780004EE08E4EB61D3188E889814210D100225C
:1047900031468B48008881DF044600BF2746002F42
:1047A00005D000BF874A88493846FFF7B1FD11E0C0
:1047B000002211468248008881DF044600BF274658
:1047C000002F06D000BF7F4AAB2189003846FFF793
:1047D0009FFD00BF24E0A87900281FD1122000F01F
:1047E000E7F8102003210091009A12048B001A436D
:1047F00005231B0707273F02DB198700DA5100BF9B
:1048000031DF044600BF2746002F06D000BF6D4AA7
:10481000AF2189003846FFF77BFD00BF00E000BFF5
:1048200000BFF8BD10B504462046FFF720FF204624
:1048300002F0E3FB2146654800F004F910BD10B515
:104840000446204600F063FD10BD70B500BF002394
:1048500050225F49082002F08AFC054600BF2E4620
:10486000002E06D000BF574A57494B313046FFF75C
:104870004FFD00BF00BF574802F0AFFC044600BF29
:104880002546002D06D000BF4E4A4F494F312846DD
:10489000FFF73EFD00BF504802F0A8FC044600BFF1
:1048A0002546002D06D000BF464A474953312846C9
:1048B000FFF72EFD00BF70BD70B500BF474A0A214B
:1048C000082001F0CBFB044600BF2546002D06D092
:1048D00000BF3C4A3C495B312846FFF719FD00BF49
:1048E00000BF70BD70B500BF3D49012002F0DAFE87
:1048F000044600BF2546002D06D000BF314A32498C
:104900007C312846FFF704FD00BF00BF70BD70B5C5
:1049100000BF0023334A0121334802F040FD044622
:1049200000BF2546002D06D000BF264A26498D31FE
:104930002846FFF7EDFC00BF00BF70BD70B53DDF3E
:10494000044600BF2546002D06D000BF1D4A0D219C
:1049500089012846FFF7DCFC00BF70BDFFF706FDAC
:10496000FFF71EFDFFF7BEFFFFF7D1FFFFF76DFF5B
:10497000FFF72EFDFFF76AFDFFF798FDFFF7ECFD4F
:10498000FFF7ABFD00F034F8FFF74DFE00BFFFF777
:10499000D5FFFCE701210522120707231B02D218CD
:1049A0008300D150704701218140104A91607047C7
:1049B000012181400D4AD16070470000C4250020CC
:1049C0000A20002024470100A6020000D420002075
:1049D000F8250020254801003F4801004826002016
:1049E000F8260020660600002C200020000500505C
:1049F000704700008A88828270470022D2438282F8
:104A0000704770B504460E46B51D288861888842F7
:104A100009D1288B012806D1A069002803D0A97EDE
:104A20002046A269904728886189884209D1288B4D
:104A3000012806D1E069002803D0A97E2046E2695A
:104A4000904770BD70B505460C462088102804D0EC
:104A5000112807D050280FD109E021462846FFF73A
:104A6000C9FF0AE021462846FFF7C7FF05E02146B7
:104A70002846FFF7C6FF00E000BF00BF70BD30B59D
:104A80008FB004460D460020079000BF6846007FA7
:104A900001090901491C68460177007FF02188431C
:104AA00010306946087700BF00BF6846407F0109A3
:104AB0000901491C68464177407FF0218843103046
:104AC0006946487700BF6846807F06218843811C7D
:104AD000684681771C2108A802F0C7FF08A8007863
:104AE00002218843811C08A80170007808218843AE
:104AF000411808A80170007810218843411808A8BF
:104B00000170002009900B900C9007A80D900020D8
:104B10000E90A17C68468171AE4981800020009092
:104B200000BF6846007801090901491C6846017008
:104B30000078F021884310306946087000BF00BF3C
:104B40006846407801090901491C6846417040786F
:104B5000F021884310306946487000BF684680786D
:104B600006218843811C684681708078082188432B
:104B70000146684681708078102188430146684666
:104B80008170807841084900491C68468170142171
:104B900002A802F06AFF01A8029068460390012172
:104BA0000182002141821921818200200690208803
:104BB000A31C02AA08A9A2DF0FB030BD30B58FB088
:104BC00004460D460020079000BF6846007F01099B
:104BD0000901491C68460177007FF02188431030A5
:104BE0006946087700BF00BF6846407F0109090198
:104BF000491C68464177407FF02188431030694660
:104C0000487700BF6846807F06218843811C68463C
:104C100081771C2108A802F028FF08A8007802214B
:104C20008843811C08A80170007808218843411836
:104C300008A80170007810218843411808A8017065
:104C4000002009900B900C9007A80D9000200E906A
:104C5000A17C684681715F49491C818000200090D9
:104C600000BF6846007801090901491C68460170C7
:104C70000078F021884310306946087000BF00BFFB
:104C80006846407801090901491C6846417040782E
:104C9000F021884310306946487000BF684680782C
:104CA00006218843811C68468170807808218843EA
:104CB0000146684681708078102188430146684625
:104CC0008170807841084900491C68468170142130
:104CD00002A802F0CAFE01A80290684603900121D2
:104CE00001820021418219218182002006902088C2
:104CF00023460A3302AA08A9A2DF0FB030BD70B55F
:104D000086B004460E460020C043A0823068A061F1
:104D10007068E061304B0FCB01AD0FC521461231F9
:104D200001A862DF0546002D02D0284606B070BDFE
:104D3000A17C684681752749491E8182224605A9C2
:104D40000120A0DF0546002D01D02846EEE73146C0
:104D50002046FFF794FE0546002D01D02846E5E7E2
:104D600031462046FFF72AFF0546002D01D0284690
:104D7000DCE70020DAE713B586B00446062101918E
:104D800000200290039004900590012168468172F2
:104D90006188018107A8059001A80490A08A02A952
:104DA000A6DF08B010BD13B586B0044601210191FD
:104DB00000200290039004900590684681726189FA
:104DC000018107A8059001A80490A08A02A9A6DF86
:104DD00008B010BD23150000507C010000231421F1
:104DE0004143FC4A53541421414389184B80022308
:104DF0001421414389188B600023142141438918F1
:104E0000CB601421414389180B6114214143891857
:104E10008B80704710B50020EF490880EF4908707B
:104E2000EC49091F087048708870002403E0204690
:104E3000FFF7D4FF641C1E2CF9D310BDFFB583B05F
:104E400004460F4615460326E448007800280BD197
:104E5000002D06D10698002803D10220DF490870F2
:104E600002E00120DD490870DC480078030002F010
:104E7000DEFE07FD05314E84BAD7FD00D8484069F3
:104E8000401C002808D001221207126991B2D44AAE
:104E9000506902F0ECFD02E0012000074069401E6D
:104EA00001210907096989B24843029001200007DE
:104EB00000690004820C01200007006980B2784379
:104EC0000146029851DF0646002E02D10220C34956
:104ED0000870D0E0384650DF0646002E16D1002D6F
:104EE00011D1069800280AD12078042803D1072080
:104EF000BA4908700AE00520B849087006E00420A5
:104F0000B649087002E00320B4490870B3E0B44821
:104F10004069401C002808D001221207126991B292
:104F2000AF4A506902F0A3FD02E00120000740698A
:104F3000401E01210907096989B248430121090777
:104F40000290096989B2794308462A46029951DFDD
:104F50000646002E10D1069800280AD12078042891
:104F600003D106209D49087006E005209B49087082
:104F700002E00420994908707DE099484069401C8E
:104F8000002808D001221207126991B2944A506990
:104F900002F06DFD02E0012000074069401E012182
:104FA0000907096989B24843A90040186188401877
:104FB000012109070290096989B27943AA00891879
:104FC00062888818069A029951DF0646002E09D198
:104FD0002078042803D106208049087002E00520CB
:104FE0007E49087047E001200007006980B27843DD
:104FF000AB00C0180290608882082169029851DFD6
:105000000646002E0BD1002D06D10698002803D1AC
:1050100007207249087002E00620704908702AE0F3
:105020006F484069401C002808D00122120712690D
:1050300091B26B4A506902F01AFD02E001200007AC
:105040004069401E01210907096989B2484301905E
:1050500001200007006981B2019802F008FD02906A
:1050600050DF0646002E04D1072000E002E05B4935
:10507000087000E000BF00BF304607B0F0BDF0B5DB
:1050800085B00F275348001F007814214843514929
:105090004418E5682078022804D0042823D0052885
:1050A0006FD16FE0206903904B48008886026088CA
:1050B000801B0490039880190390A08880194519DB
:1050C000012189020498884206D204988208284661
:1050D000039951DF074605E0FF2201322846039974
:1050E00051DF074681E0A06800013E494018008971
:1050F0000490A0680001401840890390A068000156
:105100004018406802900298A84205D1039904987B
:1051100048436188884202D0A06803280DD101204D
:105120000007006981B2284602F0A1FC2A490988DB
:105130004618304650DF074622E00120000700698C
:1051400081B2284602F093FC064601200007006960
:1051500080B27043281A800801900120000700697E
:1051600080B2711C484361884919401A8008009038
:1051700031462046009B019AFFF760FE074600BFBC
:1051800033E031E001200007006981B2284602F0D7
:105190006EFC0646A088411901200007006980B214
:1051A0007043081A80080490A0884019618842184A
:1051B00001200007006980B2711C4843801A8008F2
:1051C000039031462046039B049AFFF737FE0746BB
:1051D0000BE00000102700203C2000203F20002092
:1051E000001000106829002000BF00BF002F02D16E
:1051F0000120FE498870384605B0F0BDFFB581B08A
:10520000064617460024F94840781E2837D0F7484C
:105210000078F64949784018C4B21E2C02DB2046BB
:105220001E38C4B214206043F049091D0E541420E6
:10523000604340180761142060434118029805C874
:10524000CA60886014206043E84A121D80180499DF
:1052500041801420604380180A9981800025101F26
:105260008078002805D1FFF70AFF0546112D00D1EF
:105270000025DE484078401CDC49487000E00425E9
:10528000284605B0F0BDF8B50446D848007814218A
:105290004843D649091D0E5C081F00781421484375
:1052A000D249091D401880680001D1490D58CF48E6
:1052B000007814214843CD49091D40184088091F32
:1052C0000090097814225143C84A121D89180B69AD
:1052D000111F097814225143C44A121D8918084627
:1052E000083022463146A847F8BD10B50024BF4813
:1052F0004078002809DDFFF7C2FE0446002C04D0E8
:10530000112C02D02046FFF7BEFF204610BDFEB58F
:1053100005460026B548807801287DD10020B34994
:105320008870B4480078082811D1022D03D10020DC
:10533000B049087002E00020AF490870FFF7D5FFC0
:105340000646002E02D03046FFF79DFFFEBD022D1F
:1053500002D0032D79D174E0A44800781421484389
:10536000A249091D4418A5480088401CA34908808B
:105370002078022807D10846008880026188884288
:1053800001DB012000E0002007462078052805D138
:1053900098480078072801D1012000E00020029001
:1053A0002078042805D193480078072801D10120EE
:1053B00000E000200190207804280BD18F4800885D
:1053C00080026188884205DB8A480078002801D184
:1053D000012000E0002000900298002807D10198E9
:1053E000002804D10098002801D1002F1FD00020F0
:1053F000804908703046FFF746FF7C490878FFF780
:10540000EDFC00207D49088078484078401E7749AF
:1054100048700846007800E01AE0401C0870084612
:1054200000781E2803DB084600781E380870FFF756
:105430005CFF0646002E02D03046FFF724FF05E051
:1054400003E00D20FFF71FFF00E000BF00BF00BF1B
:1054500000BF7BE770B5FFF7DDFC002068490880DE
:1054600068484069401C002808D0012212071269D0
:1054700091B2644A506902F0FAFA02E00120000792
:105480004069C01E01210907096989B248435E4984
:10549000086000205949088000BF0DE0002102018A
:1054A000534B99500201D21811810201D2189181F7
:1054B0000201D2185181401C0228EFD308204D4927
:1054C000087050484069401C002808D0012212078B
:1054D000126991B24B4A506902F0C9FA02E0012008
:1054E00000074069401E01210907096989B2484344
:1054F000064601200007006981B2304602F0B7FA83
:10550000054650DF0446002C04D10120374988703D
:1055100039490870204670BDF8B504460D4600BFF5
:1055200035480078002801D10820F8BD00BF002CC4
:1055300001D10E20F9E7002D01D10E20F5E72068FA
:10554000002801D10E20F0E7A08801210907096990
:1055500089B2884202DCA088102801DA0720E4E73B
:10556000E08800281ED027484069401C002808D049
:1055700001221207126991B2224A506902F077FAA9
:1055800002E0012000074069401E01210907096966
:1055900089B24843E188A28851431B4A126889189E
:1055A000884201D20720C0E720798007800F0028B9
:1055B00001D00720B9E712480088022801D1042051
:1055C000B3E70F48008828600F48006868600C49FE
:1055D00009880901064A89186868486008490988E5
:1055E000090120685050A08805490FE00C270020D1
:1055F000682900203F2000203E2000203C20002081
:1056000034200020001000103820002009880901F3
:1056100089180881E088F8490988090189184881B2
:105620000027A688E1884E4300BF781C87B201207E
:105630000007006980B2B04205D20120000700696E
:1056400080B2361A00E0002601200007006980B20F
:10565000EA4909684018E949086001200007006923
:1056600080B2B042E1D9E44800880001E449401822
:105670008781E1480088401CDF490880002054E70A
:105680003CB5034600BFDF480078002801D1082060
:105690003CBD00BF002B01D10E20F9E7002A01D14B
:1056A0000E20F5E71868022805D218680001D44CCE
:1056B0002058002801D10720EAE75C6818680194A7
:1056C0000090019C18680001CD4D401900894843A5
:1056D00020180190009800012C4600194089009C78
:1056E0002401641924896043009C240164196468BE
:1056F0000019019CA04201D80720C9E7019C00982D
:10570000546010600020C3E7F8B504460E46154605
:105710001F4600BFBB480078002801D10820F8BD13
:1057200000BF002E01D10E20F9E7002C01D10E2080
:10573000F5E72068022805D220680001B049085822
:10574000002801D10720EAE720680001AC49401891
:10575000408921680901AA4A8918098948432168B2
:1057600009018918496840186168884201D80720F2
:10577000D5E7002D06D020680001A1494018008916
:10578000A84201DA0720CAE7E819216809019C4A02
:1057900089180989884201DD0720C0E7304600F0FA
:1057A00050F9002804D0384600F04BF9002801D108
:1057B0001020B4E7606800F044F9002801D11020FF
:1057C000ADE72B463246214602200097FFF716FD33
:1057D000A5E7F8B504460E4615461F4600BF8948A2
:1057E0000078002801D10820F8BD00BF002E01D1AB
:1057F0000E20F9E7002C01D10E20F5E720680228E1
:1058000005D2206800017E490858002801D10720F0
:10581000EAE7206800017A494018408921680901B7
:10582000774A891809894843216809018918496814
:1058300040186168884201D80720D5E7002D06D0BE
:10584000206800016E4940180089A84201DA07204B
:10585000CAE7E81921680901694A89180989884253
:1058600001DD0720C0E7304600F0EBF8002804D047
:10587000384600F0E6F8002801D11020B4E760684F
:1058800000F0DFF8002801D11020ADE72B463246AA
:10589000214605200097FFF7B1FCA5E7F8B50746BC
:1058A0000C4615461E4600BF56480078002801D118
:1058B0000820F8BD00BF002C01D10E20F9E7002F11
:1058C00001D10E20F5E72068022805D220680001EA
:1058D0004B490858002801D10720EAE72068000159
:1058E00047494018408921680901454A89180989B2
:1058F000484321680901891849684018616888424D
:1059000001D80720D5E7002D06D0206800013C49CA
:1059100040180089A84201DA0720CAE7A8192168BF
:105920000901374A89180989884201DD0720C0E743
:10593000384600F086F8002804D0304600F081F8A0
:10594000002801D11020B4E7606800F07AF8002840
:1059500001D11020ADE7606881192A46384602F06F
:1059600025F80020A5E7F8B504460D4600BF2548F8
:105970000078002801D10820F8BD00BF002C01D11B
:105980000E20F9E72068022805D2206800011C4992
:105990000858002801D10720EEE7206800011849C7
:1059A0004018408921680901154A89180989484326
:1059B000216809018918496840186168884201D83E
:1059C0000720D9E7606800F03CF8002801D11020DA
:1059D000D2E723681B010A4FDB1962685B68D01AA3
:1059E000226812013B46D218118902F040F80029C2
:1059F0000AD00720C0E70000342000203820002013
:105A0000682900203E20002000202B460246214627
:105A100000900420FFF7F2FB06463046ACE7014653
:105A200000BF0C480078002801D10820704700BF53
:105A3000002901D10E20F9E70748407808600020CE
:105A4000F4E701468807800F002801D10120704744
:105A50000020FCE73E2000200C270020F7B584B092
:105A600004460F4606980678B01C1F2803DC6078B1
:105A7000801C1F2802DD0C2007B0F0BD1F20801BFA
:105A8000801E85B20295B11C781802A97DDF0390B3
:105A90000398002801D00398EEE72078022808D167
:105AA00068460089A84204DC0920019068460589FF
:105AB0000BE0082001906078002804D06078A842AC
:105AC00001DC657801E068460589681CC2B2304691
:105AD000711CCEB23A543046721CD6B20199395478
:105AE00006980178A81C0818C1B206980170002019
:105AF000C2E7F8B505460C462078001D1F2801DDD9
:105B00000C20F8BD684679DF0646002E01D03046ED
:105B1000F7E703212278501C2070A954192122781C
:105B2000501C2070A954207841196846008800F064
:105B30008AFA2178401820700020E2E7F8B505467F
:105B40000F4616461C466868002801D10720F8BD9C
:105B50002078801C298840181F2801DD0C20F6E7DA
:105B60002878401CC1B22278501C2070B154217892
:105B7000481C207077542A8823789819696801F0A6
:105B800015FF20782978401820700020DFE730B515
:105B900003461078C01C1F2801DD0C2030BD0224F4
:105BA0001578681C10704C550A241578681C107004
:105BB0004C551578681C10704B550020EEE7FFB56A
:105BC00087B006461D46109C002006902078059060
:105BD000002747E0B900706841180A8868460281CA
:105BE00049884181002203A902A864DF0490049837
:105BF000002802D004980BB0F0BD6846017B0998DC
:105C000081422ED10698002801D0002000E0022019
:105C1000019020786946097B4118019808181F28CF
:105C200001DD0C20E7E70698002809D12078401C08
:105C300020702278511C08982170A85401200690E9
:105C40002078421903A902A864DF04900498002870
:105C500001D00498CFE720786946097B401820706E
:105C600000BF7F1C3088B842B4DC0698002806D0FC
:105C700021780598401C081AC1B2059829540020C3
:105C8000B9E7FFB581B0074615460A9E0096022285
:105C90003846049B0299FFF792FF0446002C02D07D
:105CA000204605B0F0BD0096102229463846049BD8
:105CB000FFF785FF0446002C01D02046F1E70020C5
:105CC000EFE701460888062808DB08881922D20178
:105CD000904205DD0888E04A904201D007207047D5
:105CE0004888062808DB48881922D201904205DD41
:105CF0004888D94A904201D00720F0E70888D64A60
:105D0000904208D04888904205D008884A8890423E
:105D100001DD0720E3E70020E1E7F8B506460D4680
:105D200014462078801D1F2801D90C20F8BD30466C
:105D3000FFF7C7FF0746002F01D03846F6E70521D9
:105D40002278501C2070A95412212278501C2070F7
:105D5000A95422785119308800F075F9217840183B
:105D6000207022785119708800F06DF92178401860
:105D700020700020DAE7F8B505460E46144628796B
:105D8000801CC7B22078801CC0191F2801DD0C20A0
:105D9000F8BD781CC1B22278501C2070B154FF218C
:105DA0002278501C2070B15422789119288800F074
:105DB0004AF9217840182070A88800280EDDA868CC
:105DC000002801D10720E3E7AA8823789819A96859
:105DD00001F0ECFD20782979401820700020D7E7E9
:105DE000FEB507460E461446386B002801D1072041
:105DF000FEBD0020019032E0396B0C220198504327
:105E00000D182879801CC0B200900098401CC1B2C7
:105E10002278501C2070B15416212278501C20701A
:105E2000B15422789119288800F00DF92178401892
:105E30002070A88800280EDDA868002801D107205E
:105E4000D6E7AA8823789819A96801F0AFFD2078D1
:105E50002979401820700198401CC0B2019034206C
:105E6000C15D01988142C7DC0020C1E7F8B5044656
:105E70000F4616460025002030702078002809D0F3
:105E8000324639462046FFF7E9FD0546002D01D090
:105E90002846F8BDA078002808D031463846FFF7DC
:105EA00028FE0546002D01D02846F2E7A0880028EC
:105EB0000ADD33463A460121201DFFF73FFE054625
:105EC000002D01D02846E4E7E06800280BD0002030
:105ED000E168085632463946FFF759FE0546002D5F
:105EE00001D02846D5E7208A00280CDD3B46062253
:105EF0000221204610300096FFF7C3FE0546002D14
:105F000001D02846C5E7208B00280CDD3B46072240
:105F10000321204618300096FFF7B3FE0546002DFA
:105F200001D02846B5E7208C00280CDD3B46152221
:105F30001421204620300096FFF7A3FE0546002DD1
:105F400001D02846A5E7A06A002809D03246394684
:105F5000A06AFFF7E2FE0546002D01D0284698E72B
:105F6000E06A002809D032463946E06AFFF703FFAD
:105F70000546002D01D028468BE73420005D00281F
:105F800009DD324639462046FFF72AFF0546002D37
:105F900001D028467DE728467BE70146888800280F
:105FA00008D08868002805D088680078042210404E
:105FB000002801D1072070470020FCE701468888AF
:105FC000002801DD072070470020FCE7F3B593B0FF
:105FD0000D460021129111911398002814D01398A6
:105FE000FFF7DBFF0446002C02D0204615B0F0BDC1
:105FF00012AA09A91398FFF739FF0446002C01D013
:106000002046F3E709AE00E00026002D13D0284615
:10601000FFF7D4FF0446002C01D02046E6E711AA82
:1060200001A92846FFF722FF0446002C01D0204694
:10603000DCE701AF00E0002710A803793A46017AB7
:10604000304672DFD2E702460A70FF20000210409D
:106050000012487002207047FFFF000030B5034671
:10606000481CC004040C10468507AD0F002D01D15B
:10607000012500E00025002D01D1072030BD7A4820
:1060800002601019794D28600020794D2870794DF3
:10609000287079480380794801800020EEE7F7B541
:1060A00084B00C467448008884426BDC744D002038
:1060B000039000F0A4F802900298012814D003A8DD
:1060C0002BDF0746022F01D172B60CE000BF01970B
:1060D000019F002F06D000BF6AA259210198FEF748
:1060E00017F900BF00BF00BF6148007800F0B1F8A9
:1060F00060490978884206D05D480578007800F04C
:10610000A8F85B4908700298012814D062B6684666
:10611000007B2CDF0746022F0CD000BF0197019FA8
:10612000002F06D000BF57A261210198FEF7F0F8BA
:1061300000BF00BF00BF5248854221D0E9004A4A53
:106140000698126850500498002811D0002C0FDDDA
:10615000494909886943454A1268881822460499C2
:1061600001F024FCE800404909684018848005E0FB
:106170000020E9003C4A126889188880002600E067
:10618000042600E00926304607B0F0BDF8B5054604
:106190000E461746052000903548007835490978A5
:1061A00088421BD033480478007800F052F8314917
:1061B00008703148008860432C49096840182860FD
:1061C000E00029490968401880883080E0002649AD
:1061D0000968085838600020009000BF0098F8BD9A
:1061E0000EB504E068468188009A029890476A4696
:1061F00001A902A8FFF7CAFF0028F3D00EBD10B511
:106200002D484068C105C90D002920D00A46103A22
:1062100050B200280DDA284B1C330407240F083C29
:10622000A408A4001B598407E40EE3401B069B0F3F
:106230000BE0224B032424021B198408A4001B59E1
:106240008407E40EE3401B069B0FD8B210BD042068
:10625000FCE7014609480088814201DA481C00E059
:106260000020C0B2704700004020002044200020E1
:1062700049200020482000204A2000204C200020F7
:10628000FFFF00002E2E5C2E2E5C2E2E5C2E2E5C30
:106290002E2E5C536F757263655C6170705F636F07
:1062A0006D6D6F6E5C6170705F7363686564756C53
:1062B00065722E630000000000ED00E000E100E0E8
:1062C00010B5002819DAFA4A03071B0F083B9B0890
:1062D0009B00D2588307DC0EFF23A3409A438B0711
:1062E0001B0E8407E40EA3401A43F14B0407240F4E
:1062F000083CA408A4001A5118E0EE4A03231B022C
:10630000D21883089B00D2588307DC0EFF23A340DA
:106310009A438B071B0E8407E40EA3401A43E54BF8
:10632000032424021B198408A4001A5110BD10B5BF
:106330000446E148846003211120FFF7C1FF10BD2E
:1063400010B501200004DD494860DC49403948604F
:10635000112000F0DDFC112000F0CCFC0120D84918
:1063600008602F20FDF700FF10BD10B5112001219E
:106370008140D04A8032116000BF01200004CF4923
:106380008860CE49403988600120CD4948602F207F
:10639000FDF7EAFE10BDF0B5024624205043C94B7C
:1063A0001B68C118C8480068401C002802D1C648B4
:1063B000026059E0C4484B68006824246043C14C23
:1063C000246800194068834217D8BF480068242316
:1063D0005843BC4B1B68C01840684B68C31ABA4886
:1063E000006824246043B74C246800194360B64811
:1063F00000680862B448026036E04B68B24D2C6811
:1064000028680DE024254543AE4E3668AD196D6809
:106410005B1B044624254543AA4E3668AD19286AFD
:10642000451C002D07D024254543A64E3668AD19DE
:106430006D689D42E6D3451C002D0CD024254543B4
:10644000A04E3668AD196D68EE1A242545439D4F60
:106450003F68ED196E604B60086224256543994ED4
:106460003668AD192A6200BFF0BD70B50246964C81
:106470002168084609E0904200D109E00146242441
:106480004443904D2D686419206A441C002CF2D1BD
:1064900000BF441C002C00D170BD814209D18A4C40
:1064A000246824256C43874D2D686419246A864D21
:1064B0002C6024244443834D2D686419636824248C
:1064C0004443804D2D686419256A24244C437D4E35
:1064D0003668A419256224244C437A4D2D6864192A
:1064E000206A441C002C0CD024244443754D2D6894
:1064F00064196468E51824244443724E3668A4196C
:10650000656000BFC8E710B5112000F0FAFB10BDB0
:1065100010B5142000F0F5FB10BD70B504466B48B3
:106520000068002813D0694AE169A06912689047A1
:10653000054600BF2E46002E07D000BF64A2FF21F3
:1065400055313046FDF7E4FE00BF00BF02E0A1690F
:10655000E069884770BDF8B55B480068401C0028BA
:106560003AD0002700F006FC044665480168204642
:1065700000F003FC06465448056811E024206843F7
:106580005049096844186068B04200D90BE060685F
:10659000361A6068C719256A2046FFF7BEFF00BF9C
:1065A000681C0028EAD100BF56480078564909788F
:1065B000884209D154480078401CC0B25249087042
:1065C000022801D1002008704F48007880004F4910
:1065D0000F50FFF79DFF00BFF8BD01464948007806
:1065E000494A127890421DD046480078401C454ADE
:1065F000107010460078022801D100201070414828
:1066000000788000414A105808603D4A08681268C6
:1066100080183B4A1060104600680002000A1060B3
:10662000012070470020086000BFFAE7FEB5264849
:106630000068019036480078009074E00098C0002F
:10664000344909684418257869E01820684361686E
:106650000F18681CC5B2A078A84200D10025387870
:10666000022802D0032857D10EE02421786848433D
:10667000144909684618307D002804D07868FFF76F
:10668000F4FE0020307548E00CE00F490968242230
:1066900051430C4A12688818002101750A4A016AA0
:1066A000116000BF08480068401C0028EDD134E0AC
:1066B0001CED00E000E100E0001501404013014046
:1066C0000010014054200020602000207420002091
:1066D0002E2E5C2E2E5C2E2E5C2E2E5C2E2E5C53CF
:1066E0006F757263655C6170705F636F6D6D6F6E07
:1066F0005C6170705F74696D65722E6300000000EC
:1067000064200020702000207120002068200020DC
:10671000582000205C20002000BF00BF00BF607830
:10672000A84292D100BF0098411EC9B20091002832
:1067300084D1FE4801680198814201D00120FEBD4C
:106740000020FCE7F0B50346002426E0F74E36684B
:1067500024277E43F64F3F68F01946689E4203D9CE
:106760004668F61A46601DE046689B1B4668341969
:10677000002646600675ED4E3568EC4F066A3E60B1
:106780000669002E08D00E193602360A86600669A0
:10679000C66016680662156000BFE4480068401CC9
:1067A0000028D3D100BFF0BDFEB50746DF48006822
:1067B0000290E048007801906BE00198C000DE494B
:1067C000096845185DE0781C002807D03E46242063
:1067D0007043D74909684418276A23E029781823A9
:1067E00059436A6850182978491C29702978AA7871
:1067F000914201D100212970466824217143CC4A7D
:1068000012688C180178012902D1217D002900D05D
:1068100037E08168A160C168E16001692161416977
:10682000E16100BFC549A0680968401A0002000A7A
:10683000C349884208D2C149A068096800F09DFA9E
:10684000E1684018606011E0BC48A168006800F091
:1068500094FA0090E1680098814204D9E1680098B8
:10686000081A606001E00020606000BF0020A060A6
:10687000E06001202075801E20623046FFF78BFD0E
:1068800000BF781C00289ED12878697888429AD168
:1068900000BF0198411EC9B2019100288DD1A348C3
:1068A00001680298814201D00120FEBD0020FCE772
:1068B000FEB505469D480068401C002835D09B4821
:1068C0000068242148439A4909684018466800F046
:1068D00051FA0290994804682146029800F04DFA56
:1068E000C01C0190681C002801D1FFF729FD019808
:1068F000B04201D2304600E0019804192402240A73
:1069000020469049086000BF00F034FA00900299D8
:10691000009800F032FAC71C2046029900F02DFAC8
:10692000874201D9FFF7EFFD01E0FFF71EFDFEBD35
:10693000FEB50020C0430190804804687B4807688A
:106940006846FFF74AFE0546FFF770FE0646002D33
:1069500005D001AA21460098FFF7F4FE0126019810
:10696000FFF722FF002800D00126002E02D0384673
:10697000FFF79EFFFEBD4170704770B502460B46A3
:106980005078411C9078884200D1002110788842CC
:1069900001D1002070BD19605078182670435568E9
:1069A0002C182046F6E7FFB581B005460E4617467F
:1069B000E900614A126888186946FFF7DEFF04465D
:1069C000002C02D1042005B0F0BD012020706660CB
:1069D00000F0D0F9A060E760049820610A98606137
:1069E000E900554A126888180099FFF7C4FFFFF7BD
:1069F0008FFD0020E7E7F8B504460E46E1004E4A59
:106A0000126888186946FFF7B8FF0546002D01D1C6
:106A10000420F8BD022028706E60E100464A12682A
:106A200088180099FFF7A7FFFFF772FD0020F0E735
:106A300038B50446E100404A126888186946FFF7F5
:106A40009CFF0546002D01D1042038BD032028708D
:106A5000001F6860E100384A126888180099FFF743
:106A60008AFFFFF755FD0020EFE710B500203649FB
:106A700008600021344841608160C16000203249D3
:106A8000403908604860FFF766FD10BD10B5FFF79C
:106A90004FFF10BDFFB581B00E4617461C4620467D
:106AA0008107890F002901D1012100E0002100297F
:106AB00002D1072005B0F0BD002C01D10720F9E775
:106AC000FFF753FC21490A980860214806701848CE
:106AD000046000250CE0002124206843144A126859
:106AE000115424206843124A1268801801756D1CE5
:106AF000B542F0DB24207043041903200D490870CF
:106B00000D480460183400250CE0E9000A4A1268B8
:106B10008818002101704170877044601821794302
:106B20000C196D1C032DF0DB002013E06020002009
:106B300054200020582000205C20002064200020E9
:106B4000FFFF7F00401501404011014074200020EC
:106B500050200020C0438B49086000208A490870FB
:106B60008A490870142000F0D3F803211420FFF79D
:106B7000A7FB142000F0BEF80198FFF7D8FB00F047
:106B8000F9F883490860002094E770B503460C4685
:106B900080480068002801D1082070BD002A01D17A
:106BA0000720FAE7002B01D10720F6E700211CE0BF
:106BB00024204843774D2D68285C002814D10125F6
:106BC00024204843734E3668355424204843714D81
:106BD0002D6840194470242048436E4D2D6840199B
:106BE000826119600020D8E7491C6B480078814217
:106BF000DEDB0420D1E710B500F092F8012802D0C6
:106C0000032804D101E0002403E0012401E0022470
:106C100000BF00BF204610BDFEB504460D46164617
:106C20005C480068002801D10820FEBD5A48007861
:106C3000844201D2052D01D20720F6E724206043CB
:106C400054490968085C012801D00820EDE7242098
:106C500060435049096840184078012801D128460E
:106C600000E000200746FFF7C6FF3B462A462146C4
:106C700000960190FFF797FED7E770B504464548A8
:106C80000068002801D1082070BD43480078844284
:106C900001D30720F8E7242060433E490968085CD7
:106CA000012801D00820EFE7FFF7A5FF05462146A0
:106CB000FFF7A1FEE8E710B536480068002801D1CB
:106CC000082010BDFFF797FF0446FFF7B1FEF8E775
:106CD00010B5044600F04EF82060002010BD70B5DD
:106CE00005460E4614463146284600F046F8206018
:106CF000002070BDC206D20E01219140274A1160CA
:106D00007047C206D20E01219140254A116070479A
:106D1000C206D20E01219140214A80321160704793
:106D200010B520484068C105C90D002920D00A4689
:106D3000103A50B200280DDA1A4B1C330407240F06
:106D4000083CA408A4001B598407E40EE3401B067A
:106D50009B0F0BE0114B032424021B198408A40091
:106D60001B598407E40EE3401B069B0FD8B210BDED
:106D70000420FCE70C48406870470246501A0002A5
:106D8000000A704760200020702000207120002041
:106D900064200020542000205020002000E100E06A
:106DA00000E200E000ED00E00015014001464888E7
:106DB000B74A1288904206DB4888B54A528890420A
:106DC00001DC012070470020FCE738B50546B148DA
:106DD0000088B14988423BD0B0480078401CAF4998
:106DE0000870AF48007B097888420FDBA849A948A2
:106DF000008875DF0446002C07D0A9488069002868
:106E000003D0A74881692046884721E00020A34994
:106E10000870A348007C00280FD03B219D480088C3
:106E200076DF0446002C07D09D488069002803D0F7
:106E30009B4881692046884700BF994840690028DF
:106E400006D000200090964841696846884700BFF8
:106E500038BD70B505461C2229469148FDF7A4F9B6
:106E6000002090490870286800280BD00822884824
:106E7000296800F09BFD86487ADF0446002C08D084
:106E8000204670BD82487BDF0446002C01D020469E
:106E9000F7E70020C0437F49088000207F49087041
:106EA000814A00218148FFF770FEEAE710B57F486C
:106EB0000068FFF7E2FE10BD38B57D48FFF776FFAA
:106EC000002829D17748007800280AD07448406902
:106ED000002820D00020009071484169684688470A
:106EE00019E06E480078002802D16D48456801E03D
:106EF0006B488568002229466C480068FFF78CFEC5
:106F00000446002C07D066488069002803D06448F6
:106F10008169204688470AE061484069002806D018
:106F2000012000905E4841696846884700BF002004
:106F30005C49087038BD10B50446A08855490880E2
:106F4000082221460E315A4800F030FD00205349F6
:106F500008705348C089002801D1FFF7ADFF10BD6C
:106F600070B505460020C0434A49088000204B49BF
:106F700008704E480068FFF780FE0446002C07D0DA
:106F800047488069002803D04548816920468847E2
:106F900070BD70B50546AC1D20884149C98988423D
:106FA00020D1208B02281DD100BF00BFA17EE27E30
:106FB000120211430846C107C90F002902D0FFF78A
:106FC0007BFF0FE039480068FFF757FE0646002EAA
:106FD00007D033488069002803D0314881693046A2
:106FE000884700BF70BD10B504460822A11D304877
:106FF00000F0DCFCFFF760FF10BD10B504462088F0
:10700000102806D0112808D012280ED0502810D1F0
:1070100007E02046FFF78FFF0CE02046FFF7A0FFB8
:1070200008E02046FFF7B5FF04E02046FFF7DBFF4E
:1070300000E000BF00BF10BD38B50446082221465D
:10704000134800F0B3FC12487ADF0546002D1CD12E
:107050001748FFF7ABFE00280BD10120114908703B
:107060000B490C48008875DF054601200B49087064
:107070000BE00B484069002806D00120009008482A
:1070800041696846884700BF0025284638BD000092
:107090007820002082200020FFFF000080200020B8
:1070A0008829002090200020CB6D01008C2000203A
:1070B0008420002070B506460C4615462946204619
:1070C000FDF74DF970BDF8B55A480078002800D199
:1070D000F8BD59480068002801D1012000E00020D7
:1070E000054656480068002801D1012000E0002034
:1070F000064600BF002D14D168464EDF0446052C1D
:1071000001D101250CE0002C06D000BF4CA2692162
:107110002046FDF7FDF803E04749009809688847D5
:1071200000BF002E1AD15448008800906946534889
:10713000006860DF0446052C01D101260DE0002C1B
:1071400006D000BF3EA280212046FDF7E1F804E012
:107150004A48006839490968884700BF002D02D0B5
:10716000002E00D000E0C5E700BF00BFB0E7FFB5CC
:1071700081B00C4616461F46002C02D1072005B0F0
:10718000F0BD20468107890F002901D1012100E0CF
:107190000021002901D10720F1E738480460364872
:1071A0000680374807603749019810DF0546002DF3
:1071B00001D02846E3E701201E490870162023DF8E
:1071C000DDE710B511DF0446002C01D0012000E0FE
:1071D000002018490870204610BD0146002901D141
:1071E0000E207047154801600020FAE7014600298B
:1071F00001D10E207047104801600020FAE770B5F9
:107200001F480068002811D01D48006880470446C8
:1072100000BF2546002D07D000BF09A2FF21333152
:107220002846FDF775F800BF00BF01E0FFF74BFFF0
:1072300070BD00009E200020A4200020A02000207F
:107240002E2E5C2E2E5C2E2E5C2E2E5C2E2E5C5353
:107250006F757263655C73645F636F6D6D6F6E5C99
:10726000736F66746465766963655F68616E646C8C
:1072700065722E63000000009C20002098200020F2
:1072800094200020B5700100F8B504460D469048E2
:107290000068002813D0EAB221788D4B60681B6823
:1072A0009847064600BF3746002F06D000BF89A288
:1072B00028213846FDF72CF800BF00BF0CE0012D57
:1072C00004D1207801216268904705E0002D03D1A8
:1072D0002078002162689047F8BDF8B507466946F6
:1072E0008848007800F0EFFA0646002E00D0F8BD7E
:1072F000002534E0E80084490968441883480068A0
:10730000227801219140084000280FD060680028B1
:107310000CD06078012804D100212046FFF7B4FF8B
:107320001BE001212046FFF7AFFF16E077484068D9
:10733000227801219140084000280ED06068002882
:107340000BD06078012804D101212046FFF79CFF73
:1073500003E000212046FFF797FF681CC5B26C4888
:1073600000788542C6DB00BFC1E770B504460D4614
:1073700068480068FFF781FC0646002E00D070BD0B
:10738000624844600560204628430246624801681E
:1073900060480068FFF740FC064600BFEFE7FFB516
:1073A00083B006460C461746052F02D2072007B0C9
:1073B000F0BD554806605648047057480760444978
:1073C00006980860002515E0E1008819027800920F
:1073D00081780191019989000522120707231B0278
:1073E000D318009A9200995000BF02780121914071
:1073F0000D4300BF2046611ECCB20028E4D1474BAC
:107400002A4629463F4800F087F902900298002852
:1074100001D00298CBE7424A00213E48FFF7B5FB76
:10742000C5E710B538480068002801D1082010BD14
:107430003448007800F0B5F9F9E710B53248006833
:10744000002801D1082010BD2E48007800F01AFA5B
:107450000446002C01D02046F5E72E480068FFF7CF
:107460000CFCF0E7F8B505460C46E800264909682B
:10747000471825480068002801D10820F8BD694652
:107480002048007800F01FFA0646002E01D0304652
:10749000F4E7787800280BD10098E840C007C00FC7
:1074A000002802D00020207010E0012020700DE0A4
:1074B000787801280AD10098E840C007C00F00285A
:1074C00002D00120207001E0002020700020D5E7CC
:1074D000B42000202E2E5C2E2E5C2E2E5C2E2E5CD8
:1074E0002E2E5C536F757263655C6170705F636FA5
:1074F0006D6D6F6E5C6170705F627574746F6E2E0F
:1075000063000000B8200020A8200020C020002038
:10751000AC200020BC200020B02000206B730100B4
:10752000DB720100F0B502460C46002037E0012373
:107530008340194623460B40002B2FD0D5680D40C1
:10754000002D05D101235B04D5680D43D56004E00F
:1075500003231B04D5688D43D56005252D07072619
:107560003602AD198600AD5903263604B54305260B
:10757000360707273F02F6198700F55105252D0725
:1075800007263602AD198600AD591D43052636077C
:1075900007273F02F6198700F55100BF401C20283D
:1075A000C5D3F0BDF0B585B0EF4805690020EF49BF
:1075B000C86300263FE014207043ED490968441871
:1075C0000120B040EB4909680840002831D0E0684C
:1075D000C043684021680840074639462046FFF707
:1075E000A1FFE148006968400390039800280ED08D
:1075F00003980543E068C043684021680840009054
:1076000020460099FFF78EFF0098074300BFA0684F
:10761000A8433840019060682840384002900199A2
:1076200002980843002803D02269019902989047E4
:1076300000BF701CC6B2D04800788642BBDB05B0E4
:10764000F0BD10B50146002029E014224A43C84B82
:107650001B689A58012383401A40002A1ED0052235
:10766000120707231B02D2188300D25803231B04DE
:107670009A4305231B07072424021B1984001A516F
:107680000522120707231B02D2188300D2580523B4
:107690001B07072424021B1984001A51401C2028B0
:1076A000D3D310BD70B505460C46002C01D1072080
:1076B00070BD20468107890F002901D1012100E01A
:1076C0000021002901D10720F2E7A9480460AB4856
:1076D00005700020A8490870A6490860A7480078EE
:1076E000142250430146A248006800F0BEF9002071
:1076F000C043A3498860062001218140A14A11604E
:1077000000BF012100F0F9F80620012181409E4AC6
:10771000116000BF0020CBE7F8B504460D461646C1
:107720001F4693480068002801D10820F8BD002FAB
:1077300001D10720FAE790480078904909788842FB
:1077400001DB0420F2E7284630438B4909781422F4
:107750005143874A126850508748007814214843A3
:1077600083490968401845608348007814214843DC
:107770007F490968401886607F4800781421484393
:107780007B490968401807617B48007820707A4877
:107790000078401C784908702078FFF752FF0020DD
:1077A000C4E7F0B5024672480068002801D10820FD
:1077B000F0BD71480078824201DB0720F8E7002025
:1077C0006A4BD863684804696A480068002802D197
:1077D00058066B4B586001209040664B1B6818435D
:1077E000644B1860002314205043614D2D684019EC
:1077F000C360002142E001238B4018461423534309
:107800005B4D2D68EB580340002B36D025460540D4
:10781000002D02D003231B040EE001235B0414257A
:107820005543534E3668AD19ED680543142656434B
:107830004F4F3F68F619F56005252D0707263602DC
:10784000AD198E00AD5903263604B543052636071B
:1078500007273F02F6198F00F55105252D0707264A
:107860003602AD198E00AD591D4305263607072790
:107870003F02F6198F00F55100BF491C2029BAD3E9
:10788000002095E710B5044639480068002801D16A
:10789000082010BD38480078844201DB0720F8E753
:1078A0002046FFF7CEFE0120A040324909688143FF
:1078B000304801600068002803D10120C00730492A
:1078C00088600020E5E710B50246294800680028D6
:1078D00001D1082010BD28480078824201DB072032
:1078E000F8E714205043224C246803191E4800690D
:1078F0001C68204008600020ECE710B5002819DA69
:10790000224A03071B0F083B9B089B00D2588307A2
:10791000DC0EFF23A3409A438B071B0E8407E40E63
:10792000A3401A43194B0407240F083CA408A400E1
:107930001A5118E0144A03231B02D21883089B0033
:10794000D2588307DC0EFF23A3409A438B071B0EFC
:107950008407E40EA3401A430B4B032424021B1993
:107960008408A4001A5110BD000500504061004079
:10797000D0200020C8200020CD200020CC200020D6
:107980000063004080E200E000E100E01CED00E068
:1079900001B505E00098401E00900348FCF7F4FB99
:1079A00000980028F6D108BDE7030000F8B5042AC6
:1079B0002CD3830712D00B78491C0370401C521E35
:1079C00083070BD00B78491C0370401C521E8307A1
:1079D00004D00B78491C0370401C521E8B079B0F70
:1079E00005D0C91ADF002023DE1B08C90AE0FCF716
:1079F000DBFBF8BD1D4608C9FD401C46B4402C43C6
:107A000010C0121F042AF5D2F308C91A521EF0D46E
:107A10000B78491C0370401C521EEAD40B78491C99
:107A20000370401C012AE4D409780170F8BD01E01C
:107A300004C0091F0429FBD28B0701D50280801CDA
:107A4000C90700D00270704700290BD0C30702D0CD
:107A50000270401C491E022904D3830702D502800C
:107A6000801C891EE3E70022EEE70022DFE7002208
:107A700003098B422CD3030A8B4211D300239C466B
:107A80004EE003460B433CD4002243088B4231D3E3
:107A900003098B421CD3030A8B4201D394463FE077
:107AA000C3098B4201D3CB01C01A524183098B42D7
:107AB00001D38B01C01A524143098B4201D34B01C0
:107AC000C01A524103098B4201D30B01C01A524123
:107AD000C3088B4201D3CB00C01A524183088B42AA
:107AE00001D38B00C01A524143088B4201D34B0093
:107AF000C01A5241411A00D2014652411046704705
:107B00005DE0CA0F00D04942031000D34042534009
:107B100000229C4603098B422DD3030A8B4212D3C9
:107B2000FC22890112BA030A8B420CD389019211FB
:107B30008B4208D3890192118B4204D389013AD038
:107B4000921100E08909C3098B4201D3CB01C01A0D
:107B5000524183098B4201D38B01C01A5241430920
:107B60008B4201D34B01C01A524103098B4201D30E
:107B70000B01C01A5241C3088B4201D3CB00C01A7B
:107B8000524183088B4201D38B00C01A5241D9D293
:107B900043088B4201D34B00C01A5241411A00D214
:107BA0000146634652415B10104601D34042002B10
:107BB00000D54942704763465B1000D3404201B58F
:107BC0000020C046C04602BD7047704770477546EA
:107BD00000F022F8AE46050069465346C008C000D2
:107BE000854618B020B5FCF70BFB60BC00274908A0
:107BF000B6460026C0C5C0C5C0C5C0C5C0C5C0C545
:107C0000C0C5C0C5403D49008D4670470446C046CA
:107C1000C0462046FCF7A1FA00487047A42900207E
:107C200001491820ABBEFEE726000200704730B4C1
:107C30007446641E2578641CAB4204D3635D5B000C
:107C4000E31830BC18471D46F8E700002215010074
:107C500023D1BCEA5F782315DEEF1212000000008A
:107C6000807C010000200020D400000004410100BD
:107C7000547D0100D420002034190000204101006F
:107C80000024F400000000000000FFFF00000000DE
:107C900000000000000000000000000000000000E4
:107CA00000000000000000000000000010000300C1
:107CB00000000000000000000000000000000000C4
:107CC00000000000000000000000000000000000B4
:107CD00000000000000000000000000000000000A4
:107CE0000000000000000000000000000000000094
:107CF0000000000000000000000000000000000084
:107D00000000000000000000000000000000000073
:107D10000000000000000000000000000000000063
:107D20000000000000000000000000000000000053
:107D30000000000000000000000000000000000043
:107D40000000000000000000000000000000000033
:047D5000000000002F
:04000005000140C1F5
:00000001FF
