:020000040001F9
:10400000103A002001420100134201001542010054
:1040100000000000000000000000000000000000A0
:104020000000000000000000000000001742010036
:104030000000000000000000194201001B420100C6
:104040001D4201001D4201001D4201001D420100F0
:104050001D42010000000000617A01001D420100C4
:104060001D4201001D4201001D4201001D420100D0
:104070001D4201001D4201001D4201001D420100C0
:104080001D4201003D6F01001D4201001D42010063
:104090005F6F01001D420100C17601001D42010059
:1040A0001D4201001D420100000000000000000050
:1040B0000000000000000000000000000000000000
:1040C00000F002F800F040F80CA030C808382418BE
:1040D0002D18A246671EAB4654465D46AC4201D140
:1040E00000F032F87E460F3E0FCCB6460126334232
:1040F00000D0FB1AA246AB46334318479447000052
:10410000B4470000103A02D378C878C1FAD85207F1
:1041100001D330C830C101D504680C60704700007D
:104120000023002400250026103A01D378C1FBD8D3
:10413000520700D330C100D50B6070471FB5C04691
:10414000C0461FBD10B510BD04F059FB1146FFF766
:10415000F5FF00F08AFC04F071FB03B4FFF7F2FFF7
:1041600003BC04F075FB0000401E00BF00BF00BF91
:1041700000BF00BF00BF00BF00BF00BF00BF00BF47
:1041800000BFF1D170470000401E00BF00BF00BF5C
:1041900000BF00BF00BF00BF00BF00BF00BF00BF27
:1041A00000BFF1D170470000401E00BF00BF00BF3C
:1041B00000BF00BF00BF00BF00BF00BF00BF00BF07
:1041C00000BFF1D17047000070B505460C46164699
:1041D00002E00FCC0FC5103E102EFAD2082E02D3EB
:1041E00003CC03C5083E042E07D301CC01C5361FFE
:1041F00003E021782970641C6D1C761EF9D270BD15
:104200000A48026803210A430260094880470948B6
:104210000047FEE7FEE7FEE7FEE7FEE7FEE70000F9
:1042200005480649064A074B704700002405004030
:10423000DF420100C1400100102A0020103A002096
:1042400010320020103200202E482F49086070479D
:104250002E48008CC0B2012810D12C48808C000759
:10426000000F0BD12948806AF0210840402805D171
:104270002648C06A084201D1012070470020FCE7AF
:104280002248008CC0B2012827D12048808C00072A
:10429000000F22D11D48806AF021084205D11B4839
:1042A000C06A084201D1012070471848806AF02195
:1042B0000840102805D11548C06A084201D10120E4
:1042C000F2E71248806AF0210840302805D10F48F3
:1042D000C06A084201D10120E6E70020E4E710B5FA
:1042E000FFF7CEFF002805D009480A494860C813E7
:1042F00009498861FFF7ACFF002802D00120074977
:10430000886010BD0024F40000200020C00F00F0E1
:10431000DFFF07C000050040006C004000060040C1
:1043200005460E4614460BE0FE480078205CFE4928
:10433000FC4A12788854FB480078401CF949087000
:1043400020780028F0D110E0F848056006601220BF
:1043500000F0B0FBFF20F53004F034F9122000F03B
:10436000AEFBFF20F53004F02DF9EDE704460D46D5
:104370002A462146EE48FFF7D3FF10B5122000F081
:1043800090FB132000F08DFB122000F08AFB10BD83
:1043900038B50546212000906946E64800F057FFF1
:1043A0000446002C0DD0082C0BD0E348844208D0E2
:1043B000E248844205D000BFE1A2E0212046FFF799
:1043C000AFFF38BD38B50546212000906946D94871
:1043D00000F054FF0446002C0DD0082C0BD0D6481A
:1043E000844208D0D548844205D000BFD4A2F5212C
:1043F0002046FFF795FF38BD38B5054621200090CF
:104400006946CC4800F056FF0446002C0ED0082C1C
:104410000CD0C948844209D0C848844206D000BFA5
:10442000C7A2FF210B312046FFF77AFF38BDF8B550
:1044300000BFC648C64B0B2206210090002002F0A8
:1044400092FD054600BF2E46002E06D000BFBCA23E
:10445000FF2116313046FFF763FF00BF00BFBD4AA2
:104460000121BD4802F0FEFD044600BF2546002D97
:1044700006D000BFB2A2FF2121312846FFF750FF2E
:1044800000BFB64A0121B64802F0ECFD044600BF69
:104490002546002D06D000BFA9A2FF2125312846C0
:1044A000FFF73EFF00BFAF4A0121AF4802F0DAFD3F
:1044B000044600BF2546002D06D000BFA0A2FF2164
:1044C00029312846FFF72CFF00BFF8BD3EB500BFDD
:1044D0006846007801090901491C00916846007886
:1044E000F02188431030009000BF08229FA1684649
:1044F0007CDF044600BF2546002D06D000BF90A2F9
:10450000FF213E312846FFF70BFF00BF002001903E
:104510000290FF219131684681804900C1800021CD
:104520000181FF219131418101A87ADF044600BF5A
:104530002546002D06D000BF81A2FF214C31284620
:10454000FFF7EEFE00BF3EBD30B591B005210191F1
:104550008948006800903C2102A804F09EF80220DF
:104560000290012168464173018201A90591012150
:10457000818469460A91002102A801F0A1FF044646
:1045800000BF2546002D06D000BF6DA2FF21693176
:104590002846FFF7C5FE00BF11B030BD7047704719
:1045A00070473EB575480090754801907548029077
:1045B0006946604800F00AFE044600BF2546002D0B
:1045C00006D000BF5EA2FF2185312846FFF7A8FE76
:1045D00000BF3EBD1E206C49088008468078400818
:1045E0004000401C88700846807802218843664954
:1045F0008870084680781C2188430C306249887096
:1046000008468078202188435F4988700720C87059
:1046100010200871704770B505462868002810D131
:104620003B215A48008876DF044600BF2646002E0C
:1046300006D000BF42A2FF21A9313046FFF770FE2D
:1046400000BF70BD044600BF3DA2FF21B43120462B
:10465000FFF766FE30B587B01C21684604F01DF8F0
:10466000002000900520400401908010029003215A
:10467000684601730021C181017445480590454891
:104680000690684602F047FE044600BF2546002D0E
:1046900006D000BF2AA2FF21CB312846FFF740FEFB
:1046A00000BF07B030BD70B50022012189032A4840
:1046B000006802F043FD044600BF2546002D06D0E9
:1046C00000BF1FA2FF21DB312846FFF729FE00BFF4
:1046D0000022012189032248006802F02FFD0446D0
:1046E00000BF2546002D06D000BF15A2FF21DE31F8
:1046F0002846FFF715FE00BF0022012189031A4852
:10470000006802F01BFD044600BF2546002D06D0C0
:1047100000BF0BA2FF21E1312846FFF701FE00BFD9
:1047200070BD00000C200020D420002008200020B4
:10473000EFBEADDEE82600200330000001340000AB
:104740002E2E5C6D61696E2E63000000C94A010067
:10475000382100209143010024200020C54301009E
:1047600028200020F94301002C200020434441432D
:104770005F494D55000000007C8801009D45010007
:104780009F450100A14501001C20002004200020BD
:10479000174601004546010030B585B01421684632
:1047A00003F07BFF002168460170002001906846FD
:1047B000017240210182B421418273DF044600BFAF
:1047C0002546002D06D000BFD14AFF21F6312846EC
:1047D000FFF7A6FD00BF122000F06CF905B030BD58
:1047E000F8B50546288814284FD006DC10280BD0D1
:1047F000112815D0132873D11CE017283FD0192891
:1048000070D05228F7D127E0132000F053F912207E
:1048100000F055F9A888BF490880FFF744FF86E0FB
:10482000132000F04CF90020C043BA490880FFF77C
:10483000B3FF7CE0B84A0021B64800887FDF044619
:1048400000BF2746002F05D000BFB14AB349384604
:10485000FFF766FD00BF6AE000221146AD48008800
:10486000A9DF044600BF2746002F06D000BFA84A94
:10487000AA49491D3846FFF753FD00BF57E03222D1
:10488000A91DA74803F0AAFE51E0A54EB61D318828
:10489000E889814211D1002231469E48008881DF9B
:1048A000044600BF2746002F06D000BF984A9B4908
:1048B00011313846FFF734FD11E0002211469548CA
:1048C000008881DF044600BF2746002F06D000BFC6
:1048D0008F4A092189013846FFF722FD00BF26E0F3
:1048E00024E0FFE7A87900281FD1122000F0E7F8A4
:1048F000102003210091009A12048B001A43052313
:104900001B0707273F02DB198700DA5100BF31DFA1
:10491000044600BF2746002F06D000BF7C4A252151
:1049200009013846FFF7FCFC00BF00E000BF00BFF4
:10493000F8BD10B504462046FFF752FF204602F0AE
:10494000BEFD2146774800F043FA10BD10B504467D
:10495000204600F05AFF10BD70B500BF0023502262
:104960007149082002F065FE054600BF2E46002E64
:1049700006D000BF664A69495C313046FFF7D0FC7B
:1049800000BF00BF694802F089FE044600BF25460B
:10499000002D06D000BF5E4A604960312846FFF70F
:1049A000BFFC00BF624802F082FE044600BF2546FD
:1049B000002D06D000BF564A584964312846FFF7FB
:1049C000AFFC00BF70BD70B500BF5A4A0A21082075
:1049D00001F0BEFD044600BF2546002D06D000BFF5
:1049E0004B4A4E496C312846FFF79AFC00BF00BF86
:1049F00070BD70B500BF5049012003F0AEF8044609
:104A000000BF2546002D06D000BF414A43498D31E5
:104A10002846FFF785FC00BF00BF70BD70B500BF22
:104A20000023464A0121464802F018FF044600BF11
:104A30002546002D06D000BF354A38499E3128460C
:104A4000FFF76EFC00BF00BF70BD70B53DDF0446D0
:104A500000BF2546002D06D000BF2D4AB521890094
:104A60002846FFF75DFC00BF70BDFFF786FCFFF72F
:104A7000DEFCFFF7BEFFFFF7D1FFFFF76DFFFFF78B
:104A800025FDFFF761FDFFF78CFDFFF7E3FDFFF765
:104A9000A1FD00F073F8FFF77FFE00BFFFF7D5FF21
:104AA000FCE701210522120707231B02D21883000D
:104AB000D150704701218140224A91607047012105
:104AC0008140204AD16070477CB504460D46009471
:104AD00001951D4A0821684601F05AFD7CBDF8B5D4
:104AE00004460D46264600BF082D01D1012000E0F6
:104AF00000200746002F05D100BF14A2FF2114316A
:104B0000FFF70EFC00BF316870688847F8BD0000F1
:104B100040470100042000201C2000202902000042
:104B2000A0250020E8260020D425002033490100DC
:104B30004D49010024260020D426002066060000EE
:104B40001020002000050050DF4A01002E2E5C2EB0
:104B50002E5C2E2E5C2E2E5C2E2E5C496E636C75A8
:104B600064655C6170705F636F6D6D6F6E5C6170CA
:104B7000705F74696D65722E680000001FB50024B7
:104B80000020029003900090019003F059F9002852
:104B90000AD003F059F90446D42C05D102A803F039
:104BA0007BF9684603F086F91FBD1CB50446002159
:104BB0000191009101A803F08FFA684603F0A6FA6C
:104BC00068460088000269468988084320801CBD29
:104BD0001CB5044600210191009101A803F048FA98
:104BE000684603F05FFA68460088000269468988D3
:104BF000084320801CBD1CB5044600210191009192
:104C000001A803F001FA684603F018FA6846008824
:104C1000000269468988084320801CBD10B50446FF
:104C20002046FFF7E8FFA01CFFF7D2FF201DFFF78B
:104C3000BCFF10BD1CB5044600210191009101A8E4
:104C400003F0E6FA684603F0FDFA684600880002C1
:104C500069468988084320801CBD1CB50446002194
:104C60000191009101A803F09FFA684603F0B6FA9B
:104C700068460088000269468988084320801CBD78
:104C80001CB5044600210191009101A803F058FAD7
:104C9000684603F06FFA6846008800026946898812
:104CA000084320801CBD10B504462046FFF7E8FFEE
:104CB000A01CFFF7D2FF201DFFF7BCFF10BD1CB5E5
:104CC000044600210191009101A803F069F96846AA
:104CD00003F080F968460088000269468988084325
:104CE00020801CBD1CB5044600210191009101A843
:104CF00003F022F9684603F039F96846008800029B
:104D000069468988084320801CBD1CB504460021E3
:104D10000191009101A803F0DBF8684603F0F2F876
:104D200068460088000269468988084320801CBDC7
:104D300010B504462046FFF7E8FFA01CFFF7D2FF9E
:104D4000201DFFF7BCFF10BD10B5044620460C30F7
:104D5000FFF7EEFFA01DFFF7A6FF2046FFF75EFF5F
:104D600010BD70478A88828370470022D2438283B5
:104D7000704770B504460E46B51D28886188884284
:104D800009D1288B012806D1206A002803D0A97EEA
:104D90002046226A904728886189884209D1288B59
:104DA000012806D1606A002803D0A97E2046626AE5
:104DB00090472888618A884209D1288B012806D12A
:104DC000A06A002803D0A97E2046A26A904770BD41
:104DD00070B505460C462088102804D0112807D04D
:104DE00050280FD109E021462846FFF7BBFF0AE013
:104DF00021462846FFF7B9FF05E021462846FFF780
:104E0000B8FF00E000BF00BF70BD30B58FB00446F2
:104E10000D460020079000BF6846007F0109090188
:104E2000491C68460177007FF021884310306946AD
:104E3000087700BF00BF6846407F01090901491C8F
:104E400068464177407FF0218843103069464877B3
:104E500000BF6846807F06218843811C68468177B1
:104E60001C2108A803F019FC08A800780221884337
:104E7000811C08A80170007808218843411808A8FF
:104E80000170007810218843411808A801700020A3
:104E900009900B900C9007A80D9000200E90A17E19
:104EA00068468171FE4981800020009000BF6846FD
:104EB000007801090901491C684601700078F02159
:104EC000884310306946087000BF00BF68464078CC
:104ED00001090901491C684641704078F021884366
:104EE00010306946487000BF6846807806218843C4
:104EF000811C684681708078082188430146684695
:104F000081708078102188430146684681708078DE
:104F100041084900491C68468170142102A803F029
:104F2000BCFB01A802906846039001210182002188
:104F3000418219218182002006902088A31C02AAA8
:104F400008A9A2DF0FB030BD30B58FB004460D46C2
:104F50000020079000BF6846007F01090901491C35
:104F600068460177007FF021884310306946087752
:104F700000BF00BF6846407F01090901491C68461F
:104F80004177407FF021884310306946487700BF61
:104F90006846807F06218843811C684681771C21F2
:104FA00008A803F07AFB08A8007802218843811C36
:104FB00008A80170007808218843411808A80170EA
:104FC000007810218843411808A80170002009903A
:104FD0000B900C9007A80D9000200E90A17E6846C3
:104FE0008171AF49491C81800020009000BF684654
:104FF000007801090901491C684601700078F02118
:10500000884310306946087000BF00BF684640788A
:1050100001090901491C684641704078F021884324
:1050200010306946487000BF684680780621884382
:10503000811C684681708078082188430146684653
:10504000817080781021884301466846817080789D
:1050500041084900491C68468170142102A803F0E8
:105060001CFB01A8029068460390012101820021E7
:1050700041821921818200200690208823460A332C
:1050800002AA08A9A2DF0FB030BD30B58FB0044628
:105090000D460020079000BF6846007F0109090106
:1050A000491C68460177007FF0218843103069462B
:1050B000087700BF00BF6846407F01090901491C0D
:1050C00068464177407FF021884310306946487731
:1050D00000BF6846807F06218843811C684681772F
:1050E0001C2108A803F0D9FA08A8007802218843F7
:1050F000811C08A80170007808218843411808A87D
:105100000170007810218843411808A80170002020
:1051100009900B900C9007A80D9000200E90A17E96
:10512000684681715E49891C81800020009000BF23
:105130006846007801090901491C68460170007839
:10514000F021884310306946087000BF00BF6846F0
:10515000407801090901491C684641704078F021F6
:10516000884310306946487000BF68468078062141
:105170008843811C684681708078082188430146F5
:1051800068468170807810218843014668468170A6
:10519000807841084900491C68468170142102A8A2
:1051A00003F07BFA01A80290684603900121018276
:1051B0000021418219218182002006902088234607
:1051C000123302AA08A9A2DF0FB030BD70B586B0B5
:1051D00005460E460020C043A883324B0FCB01ACDE
:1051E0000FC429461A3101A862DF0446002C02D000
:1051F000204606B070BDA97E684681752849491EC3
:1052000081822A4605A90120A0DF0446002C01D096
:105210002046EEE731462846FFF7F7FD0446002C0E
:1052200001D02046E5E731462846FFF78DFE0446CB
:10523000002C01D02046DCE731462846FFF725FF49
:105240000446002C01D02046D3E70020D1E730B53A
:1052500085B004460D460A2100910020019002907D
:1052600003900490012168468171618881800495D2
:105270000390A08B01A9A6DF05B030BD30B585B085
:1052800004460D460A2100910020019002900390EF
:10529000049001216846817161898180049503E051
:1052A00023150000808801000390A08B01A9A6DFD0
:1052B00005B030BD30B585B004460D460A210091D9
:1052C00000200190029003900490012168468171B2
:1052D000618A818004950390A08B01A9A6DF05B0A7
:1052E00030BD0000002314214143F94A53541421D6
:1052F000414389184B8002231421414389188B6054
:105300000023142141438918CB601421414389189B
:105310000B611421414389188B80704710B5002020
:10532000EC490880EC490860E949091F0870487099
:105330008870002403E02046FFF7D4FF641C1E2C75
:10534000F9D310BDFFB583B004460F4615460326BA
:10535000E148006800280BD1002D06D106980028EE
:1053600003D10220DC49086002E00120DA4908602C
:10537000D9480068030003F072FA07FC05304D823B
:10538000B7D4FC00D5484069401C08D00122120760
:10539000126991B2D14A506903F081F902E001200B
:1053A00000074069401E01210907096989B2484385
:1053B00002900120000700690004820C0120000710
:1053C000006980B278430146029851DF0646002EFC
:1053D00002D10220C0490860CCE0384650DF0646C2
:1053E000002E16D1002D11D1069800280AD1207860
:1053F000042803D10720B84908600AE00520B6490F
:10540000086006E00420B449086002E00320B249C5
:105410000860AFE0B1484069401C08D00122120783
:10542000126991B2AD4A506903F039F902E00120E6
:1054300000074069401E01210907096989B24843F4
:10544000012109070290096989B2794308462A4671
:10545000029951DF0646002E10D1069800280AD185
:105460002078042803D106209B49086006E0052027
:105470009949086002E00420974908607AE097485B
:105480004069401C08D001221207126991B2934A68
:10549000506903F004F902E0012000074069401E52
:1054A00001210907096989B24843A90040186188A8
:1054B0004018012109070290096989B27943AA00BD
:1054C000891862888818069A029951DF0646002ECC
:1054D00009D12078042803D106207F49086002E022
:1054E00005207D49086045E001200007006980B281
:1054F0007843AB00C0180290608882082169029846
:1055000051DF0646002E0BD1002D06D1069800284B
:1055100003D107207049086002E006206E49086048
:1055200028E06E484069401C08D001221207126929
:1055300091B26A4A506903F0B2F802E00120000714
:105540004069401E01210907096989B24843019059
:1055500001200007006981B2019803F0A0F80290D1
:1055600050DF0646002E02D107205B49086001E0AB
:10557000FFE700BF00BF304607B0F0BDF0B585B013
:105580000F275348001F00781421484350494418FE
:10559000E5682078022804D0042823D005286FD19C
:1055A0006FE0206903904B48008886026088801B6A
:1055B0000490039880190390A0888019451901214F
:1055C00089020498884206D20498820828460399E2
:1055D00051DF074605E0FF2201322846039951DFDB
:1055E000074680E0A06800013D494018008904900A
:1055F000A0680001401840890390A068000140188D
:10560000406802900298A84205D103990498484343
:105610006188884202D0A06803280DD101200007CC
:10562000006981B2284603F03AF82A4909884618E9
:10563000304650DF074622E001200007006981B2B2
:10564000284603F02CF8064601200007006980B2C6
:105650007043281A8008019001200007006980B279
:10566000711C484361884919401A800800903146EE
:105670002046009B019AFFF765FE074600BF32E017
:1056800030E001200007006981B2284603F007F8E6
:105690000646A088411901200007006980B27043C6
:1056A000081A80080490A0884019618842180120D7
:1056B0000007006980B2711C4843801A800803907B
:1056C00031462046039B049AFFF73CFE07460AE05A
:1056D0001C270020382000203C2000200010001053
:1056E0007429002000BF00BF002F02D10120FE4915
:1056F0008870384605B0F0BDFFB581B00646174644
:105700000024F94840781E2837D0F7480078F64939
:1057100049784018C4B21E2C02DB20461E38C4B2A1
:1057200014206043F049091D0E54142060434018B2
:105730000761142060434118029805C8CA60886058
:1057400014206043E84A121D8018049941801420F7
:10575000604380180A9981800025101F80780028F6
:1057600005D1FFF70BFF0546112D00D10025DE48BE
:105770004078401CDC49487000E00425284605B00C
:10578000F0BDF8B50446D848007814214843D649FE
:10579000091D0E5C081F007814214843D249091DD9
:1057A000401880680001D1490D58CF480078142175
:1057B0004843CD49091D40184088091F00900978C9
:1057C00014225143C84A121D89180B69111F097808
:1057D00014225143C44A121D891808460830224633
:1057E0003146A847F8BD10B50024BF4840780028CE
:1057F00009DDFFF7C3FE0446002C04D0112C02D0B3
:105800002046FFF7BEFF204610BDFEB50546002628
:10581000B548807801287DD10020B3498870B4480C
:105820000068082811D1022D03D10020B04908607A
:1058300002E00020AF490870FFF7D5FF0646002EB2
:1058400002D03046FFF79DFFFEBD022D02D0032D92
:1058500079D174E0A448007814214843A249091D75
:105860004418A5480088401CA349088020780228D5
:1058700007D10846008880026188884201DB012048
:1058800000E0002007462078052805D198480068E8
:10589000072801D1012000E0002002902078042890
:1058A00005D193480068072801D1012000E00020BD
:1058B0000190207804280BD18F48008880026188ED
:1058C000884205DB8A480068002801D1012000E0F9
:1058D000002000900298002807D10198002804D1E8
:1058E0000098002801D1002F1FD0002080490860B7
:1058F0003046FFF746FF7C490878FFF7F3FC0020AD
:105900007D49088078484078401E774948700846AD
:10591000007800E01AE0401C0870084600781E2855
:1059200003DB084600781E380870FFF75CFF064668
:10593000002E02D03046FFF724FF05E003E00D20E3
:10594000FFF71FFF00E000BF00BF00BF00BF7BE705
:1059500070B5FFF7E3FC002068490880684840699B
:10596000401C08D001221207126991B2644A5069A2
:1059700002F095FE02E0012000074069C01E0121EF
:105980000907096989B248435E49086000205A49FD
:10599000088000BF0DE000210201544B9950020124
:1059A000D21811810201D21891810201D2185181BD
:1059B000401C0228EFD308204D4908605048406938
:1059C000401C08D001221207126991B24C4A50695A
:1059D00002F065FE02E0012000074069401E01213F
:1059E0000907096989B24843064601200007006992
:1059F00081B2304602F053FE054650DF0446002CCB
:105A000004D10120384988703A490870204670BD99
:105A1000F8B504460D4600BF36480078002801D18D
:105A20000820F8BD00BF002C01D10E20F9E7002DA1
:105A300001D10E20F5E72068002801D10E20F0E703
:105A4000A08801210907096989B2884202DCA0887F
:105A5000102801DA0720E4E7E08800281DD0284854
:105A60004069401C08D001221207126991B2244AF1
:105A7000506902F014FE02E0012000074069401E58
:105A800001210907096989B24843E188A288514385
:105A90001C4A12688918884201D20720C1E7207980
:105AA0008007800F01D00720BBE714480088022838
:105AB00001D10420B5E7114800882860114800682A
:105AC00068600E4909880901084A891868684860B1
:105AD0000A490988090120685050A08807490988A7
:105AE0000901891808810FE0182700207429002077
:105AF0003C200020302000203820002032200020D0
:105B00000010001034200020E088F84909880901BD
:105B1000891848810027A688E1884E4300BF781C79
:105B200087B201200007006980B2B04205D201208F
:105B30000007006980B2361A00E000260120000745
:105B4000006980B2EA4909684018E9490860012003
:105B50000007006980B2B042E1D9E4480088000142
:105B6000E44940188781E1480088401CDF490880EB
:105B7000002056E73CB5034600BFDF480078002808
:105B800001D108203CBD00BF002B01D10E20F9E758
:105B9000002A01D10E20F5E71868022805D21868FE
:105BA0000001D44C2058002801D10720EAE75C68A6
:105BB000186801940090019C18680001CD4D4019AF
:105BC0000089484320180190009800012C460019D4
:105BD0004089009C2401641924896043009C2401AD
:105BE000641964680019019CA04201D80720C9E724
:105BF000019C0098546010600020C3E7F8B504468B
:105C00000E4615461F4600BFBB480078002801D14C
:105C10000820F8BD00BF002E01D10E20F9E7002CAE
:105C200001D10E20F5E72068022805D22068000186
:105C3000B0490858002801D10720EAE72068000190
:105C4000AC494018408921680901AA4A8918098984
:105C500048432168090189184968401861688842E9
:105C600001D80720D5E7002D06D020680001A14902
:105C700040180089A84201DA0720CAE7E81921681C
:105C800009019C4A89180989884201DD0720C0E77B
:105C9000304600F050F9002804D0384600F04BF9A7
:105CA000002801D11020B4E7606800F044F9002812
:105CB00001D11020ADE72B46324621460220009745
:105CC000FFF71AFDA5E7F8B504460E4615461F4630
:105CD00000BF89480078002801D10820F8BD00BF26
:105CE000002E01D10E20F9E7002C01D10E20F5E79E
:105CF0002068022805D2206800017E490858002843
:105D000001D10720EAE7206800017A49401840895C
:105D100021680901774A89180989484321680901DE
:105D20008918496840186168884201D80720D5E77A
:105D3000002D06D0206800016E4940180089A84255
:105D400001DA0720CAE7E81921680901694A8918B8
:105D50000989884201DD0720C0E7304600F0EBF8F2
:105D6000002804D0384600F0E6F8002801D11020C1
:105D7000B4E7606800F0DFF8002801D11020ADE73B
:105D80002B463246214605200097FFF7B5FCA5E7D4
:105D9000F8B507460C4615461E4600BF5648007823
:105DA000002801D10820F8BD00BF002C01D10E2031
:105DB000F9E7002F01D10E20F5E72068022805D26F
:105DC000206800014B490858002801D10720EAE764
:105DD0002068000147494018408921680901454A67
:105DE00089180989484321680901891849684018B8
:105DF0006168884201D80720D5E7002D06D02068C9
:105E000000013C4940180089A84201DA0720CAE78E
:105E1000A81921680901374A89180989884201DDD2
:105E20000720C0E7384600F086F8002804D0304646
:105E300000F081F8002801D11020B4E7606800F07C
:105E40007AF8002801D11020ADE7606881192A4650
:105E5000384602F0C3FB0020A5E7F8B504460D461E
:105E600000BF25480078002801D10820F8BD00BFF8
:105E7000002C01D10E20F9E72068022805D2206805
:105E800000011C490858002801D10720EEE72068CE
:105E9000000118494018408921680901154A8918EC
:105EA00009894843216809018918496840186168CF
:105EB000884201D80720D9E7606800F03CF8002844
:105EC00001D11020D2E723681B010A4FDB19626859
:105ED0005B68D01A226812013B46D218118902F081
:105EE000DEFB00290AD00720C0E700003220002096
:105EF00034200020742900203020002000202B4670
:105F00000246214600900420FFF7F6FB0646304685
:105F1000ACE7014600BF0C480078002801D10820FA
:105F2000704700BF002901D10E20F9E707484078EB
:105F300008600020F4E701468807800F01D10120A6
:105F400070470020FCE700003020002018270020C8
:105F5000F7B584B004460F4606980678B01C1F2893
:105F600003DC2079801C1F2802DD0C2007B0F0BD67
:105F70001F20801B801E85B20295B11C781802A9D3
:105F80007DDF03900398002801D00398EEE7206896
:105F9000022808D168460089A84204DC0920019043
:105FA000684605890BE0082001902079002804D07C
:105FB0002079A84201DC257901E068460589681C42
:105FC000C2B23046711CCEB23A543046721CD6B2C0
:105FD0000199395406980178A81C0818C1B206988E
:105FE00001700020C2E7F8B505460C462078001D78
:105FF0001F2801DD0C20F8BD684679DF0646002E1B
:1060000001D03046F7E703212278501C2070A954B4
:1060100019212278501C2070A95420784119684613
:10602000008800F08AFA2178401820700020E2E70A
:10603000F8B505460F4616461C466868002801D18B
:106040000720F8BD2078801C298840181F2801DD12
:106050000C20F6E72878401CC1B22278501C207032
:10606000B1542178481C207077542A8823789819D5
:10607000696802F0B3FA207829784018207000206F
:10608000DFE730B503461078C01C1F2801DD0C2067
:1060900030BD02241578681C10704C550A24157800
:1060A000681C10704C551578681C10704B550020FA
:1060B000EEE7FFB587B006461D46109C002006900F
:1060C00020780590002747E0B900706841180A88D9
:1060D0006846028149884181002203A902A864DF41
:1060E00004900498002802D004980BB0F0BD6846D4
:1060F000017B099881422ED10698002801D000200A
:1061000000E00220019020786946097B411801983F
:1061100008181F2801DD0C20E7E70698002809D1A0
:106120002078401C20702278511C08982170A854B7
:10613000012006902078421903A902A864DF049088
:106140000498002801D00498CFE720786946097B9D
:106150004018207000BF7F1C3088B842B4DC06981D
:10616000002806D021780598401C081AC1B205986D
:1061700029540020B9E7FFB581B0074615460A9EAD
:10618000009602223846049B0299FFF792FF0446CC
:10619000002C02D0204605B0F0BD00961022294602
:1061A0003846049BFFF785FF0446002C01D02046AB
:1061B000F1E70020EFE701460888062808DB088899
:1061C0001922D201904205DD0888E04A904201D0B0
:1061D000072070474888062808DB48881922D20122
:1061E000904205DD4888D94A904201D00720F0E767
:1061F0000888D64A904208D04888904205D008883E
:106200004A88904201DD0720E3E70020E1E7F8B586
:1062100006460D4614462078801D1F2801D90C2003
:10622000F8BD3046FFF7C7FF0746002F01D03846BC
:10623000F6E705212278501C2070A95412212278FB
:10624000501C2070A95422785119308800F075F93B
:1062500021784018207022785119708800F06DF96B
:106260002178401820700020DAE7F8B505460E4680
:1062700014462879801CC7B22078801CC0191F28BA
:1062800001DD0C20F8BD781CC1B22278501C2070B2
:10629000B154FF212278501C2070B15422789119FA
:1062A000288800F04AF9217840182070A888002832
:1062B0000EDDA868002801D10720E3E7AA8823782B
:1062C0009819A96802F08AF9207829794018207075
:1062D0000020D7E7FEB507460E461446786B002827
:1062E00001D10720FEBD0020019032E0796B0C2225
:1062F000019850430D182879801CC0B20090009876
:10630000401CC1B22278501C2070B1541621227852
:10631000501C2070B15422789119288800F00DF992
:10632000217840182070A88800280EDDA868002871
:1063300001D10720D6E7AA8823789819A96802F026
:106340004DF920782979401820700198401CC0B27E
:1063500001903820C15D01988142C7DC0020C1E76F
:10636000F8B504460F461646002500203070206818
:10637000002809D0324639462046FFF7E9FD054698
:10638000002D01D02846F8BD6079002808D031469C
:106390003846FFF728FE0546002D01D02846F2E7D3
:1063A000208900280BDD33463A460121204608307B
:1063B000FFF73EFE0546002D01D02846E3E72069A1
:1063C00000280BD000202169085632463946FFF7D5
:1063D00058FE0546002D01D02846D4E7A08A0028A3
:1063E0000CDD3B4606220221204614300096FFF7C2
:1063F000C2FE0546002D01D02846C4E7A08B002828
:106400000CDD3B460722032120461C300096FFF797
:10641000B2FE0546002D01D02846B4E7A08C002826
:106420000CDD3B4615221421204624300096FFF750
:10643000A2FE0546002D01D02846A4E7E06A002808
:1064400009D032463946E06AFFF7E1FE0546002DE5
:1064500001D0284697E7206B002809D032463946FC
:10646000206BFFF702FF0546002D01D028468AE782
:106470003820005D002809DD324639462046FFF706
:1064800029FF0546002D01D028467CE728467AE7FB
:1064900001460889002807D0C868002804D0C868C9
:1064A00000780422104201D1072070470020FCE749
:1064B00001460889002801DD072070470020FCE71D
:1064C000F3B593B00D460021129111911398002855
:1064D00014D01398FFF7DCFF0446002C02D02046AE
:1064E00015B0F0BD12AA09A91398FFF739FF0446A9
:1064F000002C01D02046F3E709AE00E00026002D75
:1065000013D02846FFF7D4FF0446002C01D02046C4
:10651000E6E711AA01A92846FFF722FF0446002C4E
:1065200001D02046DCE701AF00E0002710A8037986
:106530003A46017A304672DFD2E702460A70FF20FF
:10654000000210400012487002207047FFFF000058
:1065500030B50346481CC004040C10468507AD0F37
:1065600001D1012500E00025002D01D1072030BD1B
:10657000784802601019784D28600020774D287007
:10658000774D287077480380774801800020EEE738
:10659000F7B584B00C467348008884427EDC734DA6
:1065A0000020039000BF72484068C105C90D002952
:1065B0001ED00A46103A104600280CDA6C4B1C33E9
:1065C00007073F0F083FBF08BF00DB598707FF0ED3
:1065D000FB409B090AE0674B03273F02DB19870852
:1065E000BF00DB598707FF0EFB409B09D8B200E0D4
:1065F000042002900298012814D003A82BDF07463C
:10660000022F01D172B60CE000BF0197019F002F4D
:1066100006D000BF58A259210198FDF781FE00BFA6
:1066200000BF00BF4D48007800F089F84C49097858
:10663000884206D049480578007800F080F847493C
:1066400008700298012814D062B66846007B2CDFDF
:106650000746022F0CD000BF0197019F002F06D0E4
:1066600000BF45A261210198FDF75AFE00BF00BF9F
:1066700000BF3E48854223D0E900364A069812689A
:1066800050500498002813D0002C11DD354909889A
:106690006943314A12688818224600E012E00499E2
:1066A00001F09CFFE8002B4909684018848005E050
:1066B0000020E900274A126889188880002600E037
:1066C000042600E00926304607B0F0BDF8B50546BF
:1066D0000E4617460520009020480078204909788A
:1066E00088421BD01E480478007800F028F81C4926
:1066F00008701C48008860431749096840182860E2
:10670000E00014490968401880883080E000114991
:106710000968085838600020009000BF0098F8BD54
:106720000EB504E068468188009A029890476A4650
:1067300001A902A8FFF7CAFF0028F3D00EBD014649
:1067400009480088814201DA481C00E00020C0B2FC
:1067500070470000402000204420002049200020F5
:10676000482000204A2000204C200020FFFF00008D
:1067700000ED00E000E100E02E2E5C2E2E5C2E2EBF
:106780005C2E2E5C2E2E5C536F757263655C61709F
:10679000705F636F6D6D6F6E5C6170705F73636867
:1067A0006564756C65722E630000000010B50028EA
:1067B00019DAFE4A03071B0F083B9B089B00D258BF
:1067C0008307DC0EFF23A3409A438B071B0E84072D
:1067D000E40EA3401A43F54B0407240F083CA40819
:1067E000A4001A5118E0F24A03231B02D2188308AE
:1067F0009B00D2588307DC0EFF23A3409A438B07EC
:106800001B0E8407E40EA3401A43E94B0324240221
:106810001B198408A4001A5110BD10B50446E548A0
:10682000846003211120FFF7C1FF10BD10B50120C6
:106830000004E1494860E04940394860112000F017
:10684000F9FC112000F0E8FC0120DC4908602F2051
:10685000FDF78AFC10BD10B5112001218140D44AFA
:106860008032116000BF01200004D3498860D24902
:10687000403988600120D14948602F20FDF774FC21
:1068800010BDF0B5024628205043CD4B1B68C118FF
:10689000CC480068401C02D1CA48026057E0C94891
:1068A0008B68006828246043C54C24680019806800
:1068B000834217D8C348006828235843C04B1B683D
:1068C000C01880688B68C31ABE48006828246043DB
:1068D000BB4C246800198360BA4800684862B94814
:1068E000026034E08B68B74D2C6828680DE02825DD
:1068F0004543B34E3668AD19AD685B1B0446282589
:106900004543AF4E3668AD19686A451C07D0282547
:106910004543AB4E3668AD19AD689D42E7D3451C83
:106920000CD028254543A64E3668AD19AD68EE1A41
:1069300028254543A24F3F68ED19AE608B60486241
:10694000282565439E4E3668AD196A6200BFF0BDCA
:1069500070B502469B4C2168084609E0904200D180
:1069600008E0014628244443954D2D686419606A67
:10697000441CF3D100BF441C00D170BD814209D139
:10698000904C246828256C438D4D2D686419646AE9
:106990008C4D2C6028244443894D2D686419A368CC
:1069A00028244443864D2D686419656A28244C4385
:1069B000834E3668A419656228244C43804D2D68A7
:1069C0006419606A441C0CD0282444437C4D2D6813
:1069D0006419A468E51828244443794E3668A4193C
:1069E000A56000BFC9E710B5112000F01CFC10BD68
:1069F00010B5142000F017FC10BD70B504467248A5
:106A00000068002813D0704A216AE0691268904734
:106A1000054600BF2E46002E07D000BF6BA2FF2107
:106A200055313046FDF77CFC00BF00BF02E0E16954
:106A3000206A884770BDF8B562480068401C39D0AC
:106A4000002700F0FFFB04466C480168204600F078
:106A5000FCFB06465B48056811E02820684358495E
:106A600009684418A068B04200D90AE0A068361A44
:106A7000A068C719656A2046FFF7BFFF00BF681C02
:106A8000EBD100BF5E4800785E490978884209D1A1
:106A90005C480078401CC0B25A490870022801D1F5
:106AA0000020087057480078800057490F50FFF7C2
:106AB0009FFF00BFF8BD014651480078514A127847
:106AC00090421DD04E480078401C4D4A1070104630
:106AD0000078022801D10020107049480078800019
:106AE000494A10580860454A086812688018434AA5
:106AF0001060104600680002000A10600120704714
:106B00000020086000BFFAE7FEB52E48006801903B
:106B10003E48007800903FE00098C0003C4909687A
:106B20004418257834E01820684361680F18681C01
:106B3000C5B2A078A84200D100253868022802D04A
:106B4000032822D10EE02821786848431C490968AF
:106B50004618307E002804D07868FFF7F9FE002040
:106B6000307613E00CE01749096828225143144A93
:106B70001268881800210176124A416A116000BF2C
:106B800010480068401CEED100E000BF00BF00BF0D
:106B90006078A842C7D100BF0098411EC9B20091D9
:106BA0000028B9D107480168019833E01CED00E0E6
:106BB00000E100E0001501404013014000100140D9
:106BC000502000205C200020702000202E2E5C2E03
:106BD0002E5C2E2E5C2E2E5C2E2E5C536F757263F7
:106BE000655C6170705F636F6D6D6F6E5C6170701E
:106BF0005F74696D65722E630000000060200020E4
:106C00006C2000206D2000206420002055200020F2
:106C100058200020814201D00120FEBD0020FCE769
:106C2000F0B50346002426E0FE4E366828277E4352
:106C3000FD4F3F68F01986689E4203D98668F61AB0
:106C400086601CE086689B1B866834190026866077
:106C50000676F44E3568F34F466A3E604669002E6C
:106C600008D00E193602360AC660466906611668F3
:106C70004662156000BFEB480068401CD4D100BFDD
:106C8000F0BDFEB50746E74800680290E748007887
:106C9000019069E00198C000E549096845185CE089
:106CA000781C07D03E4628207043DF490968441805
:106CB000676A23E02978182359436A6850182978AD
:106CC000491C29702978AA78914201D100212970A4
:106CD000466828217143D44A12688C18016801293A
:106CE00002D1217E002900D037E08168E160C168CF
:106CF0002161016961614169216200BFCD49E0689C
:106D00000968401A0002000ACB49884208D2C949E2
:106D1000E068096800F099FA21694018A06011E064
:106D2000C448E168006800F090FA0090216900987A
:106D3000814204D921690098081AA06001E000206E
:106D4000A06000BF0020E060206101202076801E4E
:106D500060623046FFF795FD00BF781CA0D128780F
:106D6000697888429CD100BF0198411EC9B2019147
:106D700000288FD1AB4801680298814201D00120E0
:106D8000FEBD0020FCE7FEB50546A6480068401C95
:106D900034D0A448006828214843A3490968401812
:106DA000866800F04FFA0290A248046821460298D3
:106DB00000F04BFAC01C0190681C01D1FFF736FDB2
:106DC0000198B04201D2304600E001980419240233
:106DD000240A20469949086000BF00F033FA009069
:106DE0000299009800F031FAC71C2046029900F081
:106DF0002CFA874201D9FFF7F6FD01E0FFF72BFDE2
:106E0000FEBDFEB50020C04301908A480468854855
:106E100007686846FFF74FFE0546FFF775FE064612
:106E2000002D05D001AA21460098FFF7F9FE0126A2
:106E30000198FFF726FF002800D00126002E02D07F
:106E40003846FFF7A0FFFEBD4170704770B502469F
:106E50000B465078411C9078884200D10021107870
:106E6000884201D1002070BD196050781826704307
:106E700055682C182046F6E7FFB581B005460E464A
:106E80001746E9006A4A126888186946FFF7DEFF6C
:106E90000446002C02D1042005B0F0BD0120206082
:106EA000666000F0CFF9A060E760049820610A985E
:106EB0006061E9005E4A126888180099FFF7C4FF14
:106EC000FFF796FD0020E7E7F8B504460E46E1001F
:106ED000574A126888186946FFF7B8FF0546002D23
:106EE00001D10420F8BD022028606E60E100504A04
:106EF000126888180099FFF7A7FFFFF779FD0020B7
:106F0000F0E738B50446E100494A12688818694636
:106F1000FFF79CFF0546002D01D1042038BD03205A
:106F20002860001F6860E100414A126888180099D3
:106F3000FFF78AFFFFF75CFD0020EFE710B50020A8
:106F40003F49086000213E4841608160C1600020E7
:106F50003B49403908604860FFF76DFD10BD10B532
:106F6000FFF74FFF10BDFFB581B00E4617461C4618
:106F700020468107890F01D1012100E0002100296D
:106F800002D1072005B0F0BD002C01D10720F9E7A0
:106F9000FFF761FC2B490A9808602B4806702248CD
:106FA000046000250CE00021282068431E4A126876
:106FB0001150282068431C4A1268801801766D1C05
:106FC000B542F0DB282070430419032017490870EC
:106FD00017480460183400250CE0E900144A1268D0
:106FE000881800210170417087704460182179432E
:106FF0000C196D1C032DF0DB0020C043094908600B
:1070000000201249087012490870142000F012F98B
:1070100003211420FFF7CAFB142000F0FDF80198AB
:1070200018E000005C2000205020002055200020A7
:107030005820002060200020FFFF7F004015014005
:107040004011014070200020542000206C200020BE
:107050006D200020FFF7E1FB00F0F4F87D490860A7
:1070600000208FE770B503460C467B480068002877
:1070700001D1082070BD002A01D10720FAE7002BBA
:1070800001D10720F6E700211CE028204843724D7B
:107090002D682858002814D10125282048436E4E19
:1070A00036683550282048436B4D2D6840194460A0
:1070B00028204843684D2D684019C261196000209E
:1070C000D8E7491C654800788142DEDB0420D1E71F
:1070D00030B500BF62484068C205D20D002A1ED0FC
:1070E0001346103B184600280CDA5D4C1C3405078B
:1070F0002D0F083DAD08AD0064598507ED0EEC403D
:10710000A4090AE0574C03252D0264198508AD0037
:1071100064598507ED0EEC40A409E0B200E00420BC
:10712000012802D0032804D101E0002103E001215D
:1071300001E0022100BF00BF084630BDFEB5044695
:107140000D46164644480068002801D10820FEBDBF
:1071500042480078844201D2052D01D20720F6E78B
:10716000282060433C4909680858012801D00820BC
:10717000EDE7282060433849096840184068012835
:1071800001D1284600E000200746FFF7A1FF3B465B
:107190002A46214600960190FFF76EFED7E770B5AC
:1071A00004462D480068002801D1082070BD2B48F6
:1071B0000078844201D30720F8E72820604326495D
:1071C00009680858012801D00820EFE7FFF780FF81
:1071D00005462146FFF778FEE8E710B51E4800682F
:1071E000002801D1082010BDFFF772FF0446FFF709
:1071F00088FEF8E710B5044600F024F8206000206F
:1072000010BD70B505460E4614463146284600F0BE
:107210001CF82060002070BDC206D20E01219140F2
:10722000104A11607047C206D20E012191400E4AE9
:1072300011607047C206D20E012191400A4A803285
:10724000116070470948406870470246501A0002B2
:10725000000A7047602000205020002054200020A9
:1072600000ED00E000E100E000E200E00015014078
:1072700001464888B74A1288904206DB4888B54ADA
:107280005288904201DC012070470020FCE738B5AD
:107290000546B1480088B14988423BD0B0480078E3
:1072A000401CAF490870AF48007B097888420FDB6B
:1072B000A849A948008875DF0446002C07D0A948D2
:1072C0008069002803D0A74881692046884721E0CB
:1072D0000020A3490870A348007C00280FD03B2160
:1072E0009D48008876DF0446002C07D09D488069C1
:1072F000002803D09B4881692046884700BF9948F1
:107300004069002806D000200090964841696846F0
:10731000884700BF38BD70B505461C2229469148F4
:10732000FCF752FF002090490870286800280BD015
:1073300008228848296801F051F986487ADF044616
:10734000002C08D0204670BD82487BDF0446002C0C
:1073500001D02046F7E70020C0437F490880002085
:107360007F490870814A00218148FFF77BFEEAE7E8
:1073700010B57F480068FFF712FF10BD38B57D4893
:10738000FFF776FF002829D17748007800280AD037
:1073900074484069002820D000200090714841695D
:1073A0006846884719E06E480078002802D16D4889
:1073B000456801E06B488568002229466C480068F2
:1073C000FFF7BCFE0446002C07D066488069002801
:1073D00003D064488169204688470AE061484069D3
:1073E000002806D0012000905E4841696846884721
:1073F00000BF00205C49087038BD10B50446A08865
:1074000055490880082221460E315A4801F0E6F815
:107410000020534908705348C089002801D1FFF764
:10742000ADFF10BD70B505460020C0434A49088035
:1074300000204B4908704E480068FFF7B0FE044634
:10744000002C07D047488069002803D0454881694F
:107450002046884770BD70B50546AC1D208841495F
:10746000C989884220D1208B02281DD100BF00BFCE
:10747000A17EE27E120211430846C107C90F00290E
:1074800002D0FFF77BFF0FE039480068FFF787FE67
:107490000646002E07D033488069002803D03148C3
:1074A00081693046884700BF70BD10B50446082288
:1074B000A11D304801F092F8FFF760FF10BD10B534
:1074C00004462088102806D0112808D012280ED093
:1074D000502810D107E02046FFF78FFF0CE0204630
:1074E000FFF7A0FF08E02046FFF7B5FF04E02046C5
:1074F000FFF7DBFF00E000BF00BF10BD38B504465A
:1075000008222146134801F069F812487ADF05463F
:10751000002D1CD11748FFF7ABFE00280BD101202E
:10752000114908700B490C48008875DF0546012099
:107530000B4908700BE00B484069002806D0012079
:107540000090084841696846884700BF00252846E2
:1075500038BD00007620002080200020FFFF0000C2
:107560007E20002094290020742000208F720100CA
:107570008C2000208220002070B506460C4615465F
:1075800029462046FCF7F2FE70BDF8B55948007850
:10759000002800D1F8BD58480068002801D101201A
:1075A00000E00020054655480068002801D1012070
:1075B00000E00020064600BF002D14D168464EDFD3
:1075C0000446052C01D101250CE0002C06D000BF9B
:1075D0004BA269212046FCF7A3FE03E04649009830
:1075E0000968884700BF002E1AD1534800880090D0
:1075F00069465248006860DF0446052C01D1012627
:107600000DE0002C06D000BF3DA280212046FCF7F3
:1076100087FE04E04948006838490968884700BF88
:10762000002D02D0002E00D000E0C5E700BF00BF53
:10763000B0E7FFB581B00C4616461F46002C02D1BC
:10764000072005B0F0BD20468107890F01D1012137
:1076500000E00021002901D10720F2E7374804604B
:1076600035480680364807603649019810DF0546E0
:10767000002D01D02846E4E701201E49087016209D
:1076800023DFDEE710B511DF0446002C01D0012016
:1076900000E0002017490870204610BD014600296F
:1076A00001D10E207047154801600020FAE701461D
:1076B000002901D10E2070470F4801600020FAE731
:1076C00070B51F480068002811D01D480068804729
:1076D000044600BF2546002D07D000BF08A2FF21A9
:1076E00033312846FCF71CFE00BF00BF01E0FFF766
:1076F0004CFF70BD90200020A4200020A02000207E
:107700002E2E5C2E2E5C2E2E5C2E2E5C2E2E5C538E
:107710006F757263655C73645F636F6D6D6F6E5CD4
:10772000736F66746465766963655F68616E646CC7
:1077300065722E63000000009C200020982000202D
:107740009420002079750100F8B504460D46904854
:107750000068002813D0EAB221788D4BA0681B681E
:107760009847064600BF3746002F06D000BF89A2C3
:1077700028213846FCF7D4FD00BF00BF0CE0012DE6
:1077800004D120780121A268904705E0002D03D1A3
:1077900020780021A2689047F8BDF8B507466946F1
:1077A0008848007800F0E7FA0646002E00D0F8BDC1
:1077B000002533E00C206843834909684418834856
:1077C000006822780121914008420FD0A06800286B
:1077D0000CD06078012804D100212046FFF7B4FFC7
:1077E0001AE001212046FFF7AFFF15E07748406817
:1077F00022780121914008420ED0A06800280BD0C9
:107800006078012804D101212046FFF79DFF03E0A5
:1078100000212046FFF798FF681CC5B26C4800782D
:107820008542C7DB00BFC2E770B504460D46694814
:107830000068FFF7B4FC0646002E00D070BD634818
:107840004460056020462843024663480168614859
:107850000068FFF773FC064600BFEFE7FFB583B093
:1078600006460C461746052F02D2072007B0F0BD8A
:1078700055480660564804705748076044490698C2
:107880000860002516E00C216143881902780092F7
:1078900041680191019989000522120707231B0203
:1078A000D318009A9200995000BF027801219140AC
:1078B0000D4300BF2046611ECCB20028E3D1474BE8
:1078C0002A4629463F4800F081F902900298002894
:1078D00001D00298CAE7424A00213E48FFF7C2FBA6
:1078E000C4E710B538480068002801D1082010BD51
:1078F0003448007800F0AFF9F9E710B53248006875
:10790000002801D1082010BD2E48007800F012FA9E
:107910000446002C01D02046F5E72E480068FFF70A
:107920003EFCF0E7F8B505460C460C2068432649B6
:107930000968471824480068002801D10820F8BDCC
:1079400069462048007800F016FA0646002E01D05D
:107950003046F4E7787800280AD10098E840C0075C
:10796000C00F02D0002020700FE0012020700CE03A
:107970007878012809D10098E840C007C00F02D0EC
:107980000120207001E0002020700020D7E70000D7
:10799000B42000202E2E5C2E2E5C2E2E5C2E2E5C13
:1079A0002E2E5C536F757263655C6170705F636FE0
:1079B0006D6D6F6E5C6170705F627574746F6E2E4A
:1079C00063000000B8200020A8200020C020002074
:1079D000AC200020BC200020B0200020297801002D
:1079E0009B770100F0B502460C46002035E00123EC
:1079F0008340194623460B422ED0D5680D4205D14F
:107A000001235B04D5680D43D56004E003231B0408
:107A1000D5688D43D56005252D0707263602AD199B
:107A20008600AD5903263604B543052636070727D9
:107A30003F02F6198700F55105252D070726360266
:107A4000AD198600AD591D430526360707273F02AD
:107A5000F6198700F55100BF401C2028C7D3F0BDA0
:107A6000F0B585B0EC4805690020EC49C8630026F4
:107A70003DE014207043EA49096844180120B040F1
:107A8000E8490968084230D0E068C043684021688E
:107A90000840074639462046FFF7A4FFDE48006944
:107AA00068400390039800280ED003980543E068CF
:107AB000C043684021680840009020460099FFF7C5
:107AC00091FF0098074300BFA068A8433840019089
:107AD000606828403840029001990298084303D01A
:107AE000226901990298904700BF701CC6B2CE4827
:107AF00000788642BDDB05B0F0BD10B50146002020
:107B000028E014224A43C64B1B689A58012383403D
:107B10001A421ED00522120707231B02D218830027
:107B2000D25803231B049A4305231B07072424026E
:107B30001B1984001A510522120707231B02D218B1
:107B40008300D25805231B07072424021B19840035
:107B50001A51401C2028D4D310BD70B505460C46E0
:107B6000002C01D1072070BD20468107890F01D16B
:107B7000012100E00021002901D10720F3E7A848F6
:107B80000460AA4805700020A7490870A54908604C
:107B9000A6480078142250430146A148006800F02E
:107BA0007CFD0020C043A24988600620012181405D
:107BB000A04A116000BF012100F0F7F80620012162
:107BC00081409D4A116000BF0020CCE7F8B5044613
:107BD0000D4616461F4692480068002801D108202D
:107BE000F8BD002F01D10720FAE78F4800788F49B0
:107BF0000978884201DB0420F2E7284630438A49AD
:107C0000097814225143864A1268505086480078F9
:107C10001421484382490968401845608248007829
:107C2000142148437E490968401886607E480078E0
:107C3000142148437A490968401807617A48007856
:107C4000207079480078401C774908702078FFF749
:107C500054FF0020C4E7F0B50246714800680028D0
:107C600001D10820F0BD70480078824201DB072076
:107C7000F8E70020694BD8636748046969480068E1
:107C8000002802D158066A4B586001209040654B8D
:107C90001B681843634B1860002314205043604D49
:107CA0002D684019C360002140E001238B40184635
:107CB000142353435A4D2D68EB58034235D02546C3
:107CC000054202D003231B040EE001235B041425AC
:107CD0005543534E3668AD19ED6805431426564397
:107CE0004F4F3F68F619F56005252D070726360228
:107CF000AD198E00AD5903263604B5430526360767
:107D000007273F02F6198F00F55105252D07072695
:107D10003602AD198E00AD591D43052636070727DB
:107D20003F02F6198F00F55100BF491C2029BCD332
:107D3000002097E710B5044639480068002801D1B3
:107D4000082010BD38480078844201DB0720F8E79E
:107D50002046FFF7D2FE0120A04032490968814346
:107D6000304801600068002803D10120C007304975
:107D700088600020E5E710B5024629480068002821
:107D800001D1082010BD28480078824201DB07207D
:107D9000F8E714205043224C246803191E48006958
:107DA0001C68204008600020ECE710B5002819DAB4
:107DB000224A03071B0F083B9B089B00D2588307EE
:107DC000DC0EFF23A3409A438B071B0E8407E40EAF
:107DD000A3401A43194B0407240F083CA408A4002D
:107DE0001A5118E0144A03231B02D21883089B007F
:107DF000D2588307DC0EFF23A3409A438B071B0E48
:107E00008407E40EA3401A430B4B032424021B19DE
:107E10008408A4001A5110BD0005005040610040C4
:107E2000C8200020CC200020D1200020D02000201D
:107E30000063004080E200E000E100E01CED00E0B3
:107E400010B500F082FA10BD1CB50F210191002180
:107E5000009101231A4601A93C2000F074FB002880
:107E60000AD001231A4669463D2000F06CFB002829
:107E700002D0684600781CBD0020FCE710B504461F
:107E80000123062221463C2000F05DFB002801D0A2
:107E9000012010BD0020FCE710B504460123082294
:107EA00021463C2000F04FFB002801D0012010BDEE
:107EB0000020FCE710B50446012305222146D4200A
:107EC00000F041FB002801D0012010BD0020FCE79C
:107ED0001CB50446282101910021009101231A4676
:107EE00001A93C2000F02FFB00280AD001231A46EC
:107EF00069463D2000F027FB002802D06846007844
:107F000020801CBD1CB5044629210191002100914F
:107F100001231A4601A93C2000F015FB00280AD0D5
:107F200001231A4669463D2000F00DFB002802D0CF
:107F30006846007820801CBD1CB504462A210191AA
:107F40000021009101231A4601A93C2000F0FBFA10
:107F500000280AD001231A4669463D2000F0F3FAB2
:107F6000002802D06846007820801CBD1CB504465D
:107F70002B2101910021009101231A4601A93C20E7
:107F800000F0E1FA00280AD001231A4669463D2094
:107F900000F0D9FA002802D06846007820801CBD85
:107FA0001CB504462C2101910021009101231A46A1
:107FB00001A93C2000F0C7FA00280AD001231A4684
:107FC00069463D2000F0BFFA002802D068460078DC
:107FD00020801CBD1CB504462D210191002100917B
:107FE00001231A4601A93C2000F0ADFA00280AD06E
:107FF00001231A4669463D2000F0A5FA002802D068
:108000006846007820801CBD1CB5044608210191FB
:108010000021009101231A4601A93C2000F093FAA7
:1080200000280AD001231A4669463D2000F08BFA49
:10803000002802D06846007820801CBD1CB504468C
:10804000092101910021009101231A4601A93C2038
:1080500000F079FA00280AD001231A4669463D202B
:1080600000F071FA002802D06846007820801CBD1C
:108070001CB504460A2101910021009101231A46F2
:1080800001A93C2000F05FFA00280AD001231A461B
:1080900069463D2000F057FA002802D06846007873
:1080A00020801CBD1CB504460B21019100210091CC
:1080B00001231A4601A93C2000F045FA00280AD005
:1080C00001231A4669463D2000F03DFA002802D0FF
:1080D0006846007820801CBD1CB504460C21019127
:1080E0000021009101231A4601A93C2000F02BFA3F
:1080F00000280AD001231A4669463D2000F023FAE1
:10810000002802D06846007820801CBD1CB50446BB
:108110000D2101910021009101231A4601A93C2063
:1081200000F011FA00280AD001231A4669463D20C2
:1081300000F009FA002802D06846007820801CBDB3
:108140001CB50446282101910021009101231A4603
:1081500001A9D42000F0F7F900280AD001231A461B
:108160006946D52000F0EFF9002802D06846007873
:1081700020801CBD1CB504462921019100210091DD
:1081800001231A4601A9D42000F0DDF900280AD005
:1081900001231A466946D52000F0D5F9002802D0FF
:1081A0006846007820801CBD1CB504462A21019138
:1081B0000021009101231A4601A9D42000F0C3F93F
:1081C00000280AD001231A466946D52000F0BBF9E1
:1081D000002802D06846007820801CBD1CB50446EB
:1081E0002B2101910021009101231A4601A9D420DD
:1081F00000F0A9F900280AD001231A466946D520C3
:1082000000F0A1F9002802D06846007820801CBD4B
:108210001CB504462C2101910021009101231A462E
:1082200001A9D42000F08FF900280AD001231A46B2
:108230006946D52000F087F9002802D0684600780A
:1082400020801CBD1CB504462D2101910021009108
:1082500001231A4601A9D42000F075F900280AD09C
:1082600001231A466946D52000F06DF9002802D096
:108270006846007820801CBDF8B5C4480568002019
:10828000C24908600805072109024018066EC04867
:108290000521090707221202891808660520000730
:1082A00011464018406E0090B94805210907891809
:1082B000486600BF01204006B649886000BF00BF85
:1082C0004010886000BF0420FBF75EFFB1480069E2
:1082D0008001C00F06D0AF480069C001C00F01D0B7
:1082E000012421E00024122718E000BF012000062D
:1082F000A849C86000BF0420FBF746FF00BF01206B
:108300000006A449886000BF0420FBF73DFFA14898
:1083100000698001C00F01D0012403E038467F1EB0
:108320000028E2D100BF00BF052000070721090295
:1083300040180666052109070722120289180098CD
:108340004866924805602046F8BD10B59048401E2A
:108350000521090707221202891808660521090765
:108360008918486600208C498860C86118208749B0
:1083700088601920C8603320C0044862864AE43A05
:1083800085493831002044DF0446002C04D083A105
:10839000FF201E30FBF7EAFF012043DF0446002CDC
:1083A00004D07EA1FF202130FBF7E0FF05207749B4
:1083B0000860FFF761FF10BDF8B504460D4616468C
:1083C0007D4F002D01D10020F8BD20786F49C86194
:1083D000641C052000F0F6F801207849886031E03F
:1083E00000BF6D48C069002806D16B48406A00286C
:1083F00002D1781E0700F4D1002F03D06648406AEE
:10840000002813D0002064494862604908606C4924
:10841000C8630520FBF7B8FE01206949C863052041
:108420005A490860FFF791FF0020CDE700205A4924
:10843000C861681EC0B2050000D104E0207853492D
:10844000C861641CCCE700BF002E0AD001205B4944
:10845000486100BF504840680028FBD000204E49CA
:1084600048600120B0E7F8B505460C461746524E65
:10847000002C01D10020F8BD012C06D14F4A143246
:1084800045493831002044DF05E04C4A1C3242495E
:108490003831002044DF012042DF00203E4988605F
:1084A00001204649086040E000BF3B488068002842
:1084B00006D13948406A002802D1701E0600F4D166
:1084C000002035498860002E03D00846406A002805
:1084D00013D00020304948622C4908603849C863ED
:1084E0000520FBF751FE01203549C86305202749C7
:1084F0000860FFF72AFF0020BDE724488069287044
:108500006D1C601EC0B20446012805D12B4A1432EE
:1085100021493831002044DF002C00D106E014202E
:10852000FBF732FE012025490862BDE700BF00BF0E
:10853000194840680028FBD00020174948600120F6
:1085400043DF012097E7F8B504460E4615461F465F
:1085500000200090002D17DDFFF78EFE002813D0BD
:1085600060100A4980318860E007C00F06D03A46A3
:1085700029463046FFF777FF009005E03A46294646
:108580003046FFF719FF00900098F8BD0045004005
:108590000D06000000050050004100402E2E5C74C6
:1085A00077695F68775F6D61737465725F53445F6D
:1085B000355F312E63000000204E00000040004077
:1085C000C04F004010B5044603E0641E0248FBF7AC
:1085D000EBFD002CF9D110BDE7030000F8B5042A2B
:1085E0002CD3830712D00B78491C0370401C521EF9
:1085F00083070BD00B78491C0370401C521E830765
:1086000004D00B78491C0370401C521E8B079B0F33
:1086100005D0C91ADF002023DE1B08C90AE0FBF7DA
:10862000D3FDF8BD1D4608C9FD401C46B4402C438F
:1086300010C0121F042AF5D2F308C91A521EF0D432
:108640000B78491C0370401C521EEAD40B78491C5D
:108650000370401C521EE4D409780170F8BD01E09B
:1086600004C0091F0429FBD28B0701D50280801C9E
:10867000C90700D00270704700290BD0C30702D091
:108680000270401C491E022904D3830702D50280D0
:10869000801C891EE3E70022EEE70022DFE70022CC
:1086A00003098B422CD3030A8B4211D300239C462F
:1086B0004EE003460B433CD4002243088B4231D3A7
:1086C00003098B421CD3030A8B4201D394463FE03B
:1086D000C3098B4201D3CB01C01A524183098B429B
:1086E00001D38B01C01A524143098B4201D34B0184
:1086F000C01A524103098B4201D30B01C01A5241E7
:10870000C3088B4201D3CB00C01A524183088B426D
:1087100001D38B00C01A524143088B4201D34B0056
:10872000C01A5241411A00D20146524110467047C8
:108730005DE0CA0F00D04942031000D340425340CD
:1087400000229C4603098B422DD3030A8B4212D38D
:10875000FC22890112BA030A8B420CD389019211BF
:108760008B4208D3890192118B4204D389013AD0FC
:10877000921100E08909C3098B4201D3CB01C01AD1
:10878000524183098B4201D38B01C01A52414309E4
:108790008B4201D34B01C01A524103098B4201D3D2
:1087A0000B01C01A5241C3088B4201D3CB00C01A3F
:1087B000524183088B4201D38B00C01A5241D9D257
:1087C00043088B4201D34B00C01A5241411A00D2D8
:1087D0000146634652415B10104601D34042002BD4
:1087E00000D54942704763465B1000D3404201B553
:1087F0000020C046C04602BD7047704770477546AE
:1088000000F022F8AE46050069465346C008C00095
:10881000854618B020B5FBF703FD60BC002749086A
:10882000B6460026C0C5C0C5C0C5C0C5C0C5C0C508
:10883000C0C5C0C5403D49008D4670470446C0468E
:10884000C0462046FBF789FC00487047B02900204D
:1088500001491820ABBEFEE726000200704730B485
:108860007446641E2578641CAB4204D3635D5B00D0
:10887000E31830BC18471D46F8E700002215010038
:1088800023D1BCEA5F782315DEEF1212000000004E
:10889000B088010000200020D40000000441010045
:1088A00084890100D42000203C19000020410100EF
:1088B0000024F400FFFF00000000000000000000A2
:1088C0001000000003000000000000000000000095
:1088D0000000000000000000000000000000000098
:1088E0000000000000000000000000000000000088
:1088F0000000000000000000000000000000000078
:108900000000000000000000000000000000000067
:108910000000000000000000000000000000000057
:108920000000000000000000000000000000000047
:108930000000000000000000000000000000000037
:108940000000000000000000000000000000000027
:108950000000000000000000000000000000000017
:108960000000000000000000000000000000000007
:1089700000000000000000000000000000000000F7
:0489800000000000F3
:04000005000140C1F5
:00000001FF
